:020000040800F2
:1000000000280020B90200080903000809030008BD
:1000100009030008090300080903000800000000A4
:1000200000000000000000000000000009030008BC
:100030000903000800000000090300080903000884
:100040000903000809030008090300080903000860
:1000500009030008090300080D0300083103000824
:1000600055030008790300089D03000809030008F0
:100070000903000809030008090300080903000830
:100080000903000809030008090300080903000820
:10009000090300080903000809030008C103000858
:1000A0000903000809030008090300080903000800
:1000B00009030008090300080903000809030008F0
:1000C000090300080903000809030008190B0008C8
:1000D000750B0008810F00088D0F0008A10F0008A4
:1000E0006904000809030008000000000903000873
:1000F00009030008090300080903000809030008B0
:10010000090300080903000809030008090300089F
:10011000090300080903000809030008090300088F
:10012000090300080903000809030008090300087F
:1001300010B5054C237833B9044B13B10448AFF321
:1001400000800123237010BD080000200000000083
:10015000FC0F000808B5034B1BB103490348AFF37C
:10016000008008BD000000000C000020FC0F00080B
:1001700080B500AF00220D490D4800F0D3FE0122EA
:100180000A490B4800F0B2FE00221021094800F095
:10019000AFFA01220549084800F094FC0122102121
:1001A000044800F0A5FA00BF80BD00BF3000002069
:1001B00000380140000801400030014080B58CB09B
:1001C00000AF314B9B69304A43F0010393612E4BE2
:1001D0009B692D4A43F0040393612B4B9B692A4A88
:1001E00043F0080393614FF4E1333B62002387F847
:1001F0002430002387F82730202387F82830002375
:1002000087F82530214BFB62002387F826300C232A
:100210003B771F4800F09AFD07F11C0319461C4864
:1002200000F0D6FC0123FB810223BB8110237B82DB
:1002300000237B8100233B810023FB800423BB80C0
:100240000023BB824FF440733B820023BB613B1D04
:100250001946104800F0C0FA0E4800F043FB042392
:10026000BB700123FB7010233B803B4619460A48B4
:1002700000F0BFF901221021074800F039FA00BF51
:100280003037BD4680BD00BF00100240710100083C
:1002900000380140003001400008014080B400AF48
:1002A00000BFBD4680BC704780B500AFFFF786FF3A
:1002B000FFF7F4FFFCE700000D488546AFF3008030
:1002C0000C480D490D4A002302E0D458C4500433B1
:1002D000C4188C42F9D30A4A0A4C002301E0136087
:1002E0000432A242FBD300F065FEFFF7DDFFFEE71C
:1002F0000028002000000020080000201C1000083A
:100300000800002078000020FEE7000080B500AF64
:10031000054B5B69044A43F001035361034B1B68BF
:10032000984700BF80BD00BF000401403800002096
:1003300080B500AF054B5B69044A43F0020353618B
:10034000034B5B68984700BF80BD00BF00040140BD
:100350003800002080B500AF054B5B69044A43F0CC
:1003600004035361034B9B68984700BF80BD00BFE7
:10037000000401403800002080B500AF054B5B69E8
:10038000044A43F008035361034BDB68984700BFFE
:1003900080BD00BF000401403800002080B500AFE0
:1003A000054B5B69044A43F010035361034B1B691F
:1003B000984700BF80BD00BF000401403800002006
:1003C00080B500AF264B5B6903F02003002B08D0FB
:1003D000234B5B69224A43F020035361214B5B6945
:1003E00098471F4B5B6903F04003002B08D01C4B60
:1003F0005B691B4A43F0400353611A4B9B69984762
:10040000174B5B6903F08003002B08D0144B5B692A
:10041000134A43F080035361124BDB699847104B3A
:100420005B6903F48073002B08D00D4B5B690C4AA9
:1004300043F4807353610B4B1B6A9847084B5B690D
:1004400003F40073002B08D0054B5B69044A43F4A6
:1004500000735361034B5B6A984700BF80BD00BFC8
:10046000000401403800002080B500AF2D4B5B69CF
:1004700003F48063002B08D02A4B5B69294A43F4BC
:1004800080635361284B9B6A9847264B5B6903F452
:100490000063002B08D0234B5B69224A43F40063BE
:1004A0005361214BDB6A98471E4B5B6903F4805311
:1004B000002B08D01B4B5B691A4A43F480535361ED
:1004C000194B1B6B9847174B5B6903F40053002BC8
:1004D00008D0144B5B69134A43F400535361124B29
:1004E0005B6B98470F4B5B6903F48043002B08D08C
:1004F0000C4B5B690B4A43F4804353610A4B9B6B83
:100500009847084B5B6903F40043002B08D0054B68
:100510005B69044A43F400435361034BDB6B984728
:1005200000BF80BD000401403800002080B483B0CB
:1005300000AF0346FB80FB88802B42D0802B11DC70
:10054000082B36D0082B06DC022B2ED0042B2ED005
:10055000012B28D047E0202B2FD0402B2FD0102B61
:1005600029D040E0B3F5006F33D0B3F5006F09DC5C
:10057000B3F5007F29D0B3F5806F28D0B3F5807F25
:1005800021D030E0B3F5005F27D0B3F5005F03DC86
:10059000B3F5805F1FD026E0B3F5804F1FD0B3F5D1
:1005A000004F1ED01FE000231EE004231CE00823A0
:1005B0001AE00C2318E0102316E0142314E018238B
:1005C00012E01C2310E000230EE004230CE00823BB
:1005D0000AE00C2308E0102306E0142304E01823AB
:1005E00002E01C2300E0002318460C37BD4680BC07
:1005F000704790B585B000AF786039600023BB606C
:100600000023FB733B681B88FF2B01D87B6801E04C
:100610007B680433BB603B681B881846FFF786FF86
:1006200003461A460F239340DA43BB681B681A40FF
:10063000BB681A603B689B78042B0BD03B689B78A7
:10064000052B07D03B689B78062B03D03B689B7833
:10065000072B0ED13B689B78043B9B005AB23B684A
:10066000DB785BB213435BB2DBB203F00F03FB73C7
:100670002CE03B689B78002B03D03B689B78012BD8
:1006800007D13B689B789B00DBB203F00F03FB7341
:100690001CE03B689B78082B02D10423FB7315E018
:1006A0000823FB733B689B78022B07D17B68DB68D0
:1006B0003A6812881A437B68DA6007E07B68DB6877
:1006C0003A681288D2431A407B68DA60FC7B3B6848
:1006D0001B881846FFF72AFF034604FA03F2BB689B
:1006E0001B681A43BB681A6000BF1437BD4690BD33
:1006F00080B483B000AF78600B467B8013467B707C
:100700007B78012B03D17A887B681A6102E07A88B2
:100710007B685A6100BF0C37BD4680BC7047000043
:1007200080B400AF0B4B5B689B0803F00F03012BF9
:1007300006D0012B02D3022B04D005E0064B04E0C7
:10074000064B02E0054B00E0034B1846BD4680BC5B
:10075000704700BF0010024000127A000024F4002D
:1007600080B500AFFFF7DCFF0146054B5B681B0956
:1007700003F00F03034AD35C21FA03F3184680BD4C
:10078000001002400000002080B500AFFFF7E8FF36
:100790000146054B5B681B0A03F00703034AD35C61
:1007A00021FA03F3184680BD00100240000000202B
:1007B00080B500AFFFF7D4FF0146054B5B68DB0A4D
:1007C00003F00703034AD35C21FA03F3184680BD04
:1007D000001002400000002080B485B000AF7860B7
:1007E00039600023FB810023BB817B68384A934238
:1007F00008D1384A3B681360374B9B69364A43F44B
:10080000805393617B68354A934208D1324BDB6950
:10081000314A43F48043D3612E4A3B685360FB89DD
:1008200043F04003FB813B681A88FB891343FB813B
:100830003B685A88FB891343FB813B689A88FB8994
:100840001343FB813B681A89FB891343FB813B6897
:100850005A89FB891343FB813B689B89042B05D193
:100860003B689A89BB891343BB8104E03B689A8942
:10087000FB891343FB813B68DA89FB891343FB81C6
:100880003B681B8A002B18D03B681A8ABB8913432C
:10089000BB817B680E4A934205D1114B1B68104AFD
:1008A00043F0080313607B680C4A934205D10C4B5C
:1008B0001B680B4A43F010031360FA897B681A60C7
:1008C000BA897B685A6000BF1437BD4680BC704748
:1008D000003001402400002000100240003C004095
:1008E00004E100E080B584B000AF78607B68704AB6
:1008F000934266D16F4B1B681B88042B34D16D4B20
:100900001B689B89042B0CD10623BB730123FB734B
:100910001023BB8107F10C0319466748FFF769FEF6
:1009200000BF0623BB730123FB732023BB8107F1A8
:100930000C0319466048FFF75CFE0123BB7340239C
:10094000BB8107F10C0319465B48FFF752FE0623F3
:10095000BB730123FB738023BB8107F10C03194692
:100960005548FFF746FE2CE0524B1B689B89002B35
:1009700009D10123BB731023BB8107F10C03194676
:100980004D48FFF736FE0123BB732023BB8107F1DF
:100990000C0319464848FFF72CFE0623BB7340237F
:1009A000BB8107F10C0319464348FFF722FE0123E0
:1009B000BB738023BB8107F10C0319463E48FFF748
:1009C00018FE7B683D4A93426ED13A4B5B681B88A8
:1009D000042B38D1374B5B689B89042B0DD1062340
:1009E000BB730123FB734FF48053BB8107F10C03EE
:1009F00019463348FFF7FDFD00BF0623BB730123F3
:100A0000FB734FF40053BB8107F10C0319462C48CC
:100A1000FFF7EFFD0123BB734FF48043BB8107F168
:100A20000C0319462648FFF7E4FD0623BB73012398
:100A3000FB734FF40043BB8107F10C0319462048B8
:100A4000FFF7D7FD30E01B4B1B689B89002B0AD1B9
:100A50000123BB734FF48053BB8107F10C0319468C
:100A60001748FFF7C6FD0123BB734FF40053BB814A
:100A700007F10C0319461248FFF7BBFD0623BB73B1
:100A80004FF48043BB8107F10C0319460C48FFF774
:100A9000B0FD0123BB734FF40043BB8107F10C038E
:100AA00019460748FFF7A5FD00BF1037BD4680BDBA
:100AB000003001402400002000080140003C0040BC
:100AC000000C014080B485B000AFF860B9601346F7
:100AD000FB71FB79012B06D100BFFB689B6803F01B
:100AE0000203002BF9D0BB681B881A46FB68DA604A
:100AF000FB79012B06D100BFFB689B6803F0010363
:100B0000002BF9D0FB68DB689AB2BB681A8000BF83
:100B10001437BD4680BC704780B582B000AF134B20
:100B20009B685B0803F00103DAB23B7962F30003D0
:100B30003B710E4B9B6803F00103DAB23B7962F321
:100B400041033B71094B9B681B0903F00103DAB2B7
:100B50003B7962F382033B71054B1B685B69387913
:100B6000984700BF0837BD4680BD00BF0030014038
:100B70002400002080B582B000AF134B9B685B0857
:100B800003F00103DAB23B7962F300033B710E4BD1
:100B90009B6803F00103DAB23B7962F341033B71D6
:100BA000094B9B681B0903F00103DAB23B7962F33E
:100BB00082033B71054B5B685B693879984700BFDE
:100BC0000837BD4680BD00BF003C00402400002027
:100BD00080B584B000AF78603960564A3B681360D6
:100BE0007B68554A934206D1544B9B69534A43F460
:100BF0008043936114E07B68514A934206D14F4B86
:100C0000DB694E4A43F40033D36109E07B684C4A08
:100C1000934205D1494BDB69484A43F48023D361B1
:100C20007B68DB6843F400527B68DA607B68DB68D2
:100C30003A6812781A437B68DA607B68DB683A6846
:100C4000127A1A437B68DA607B68DB683A68527A0A
:100C50001A437B68DA607B681B693A68927A1A43A8
:100C60007B681A617B685B693A68D27A1A437B6851
:100C70005A617B68304A934203D1FFF799FDF860CF
:100C800002E0FFF781FDF8603B685B681B01FA68D2
:100C9000B2FBF3F31A01FB68642101FB03F13B682B
:100CA0005B681B01B1FBF3F13B685B681B01F868F3
:100CB000B0FBF3F3642000FB03F3CB1A1B012149C3
:100CC000A1FB03135B0903F00F031343BB607B68B5
:100CD000BA689A603B681B7B002B26D07B68DB6878
:100CE0003A68127B1A437B68DA607B68124A934247
:100CF00006D1154B1B68144A43F02003136014E01F
:100D00007B680F4A934206D10F4B1B680E4A43F093
:100D10004003136009E07B68094A934205D10A4BFE
:100D20001B68094A43F08003136000BF1037BD46BB
:100D300080BD00BF2C0000200038014000100240A0
:100D4000004400401F85EB5104E100E080B584B011
:100D500000AF7860604B1B68DB7AFB737B685F4A8F
:100D600093423BD14FF400733B810623BB720123B6
:100D7000FB7207F1080319465948FFF73AFC4FF494
:100D800080633B810123BB7207F108031946544875
:100D9000FFF72FFCFB7B03F40073002B0AD04FF40A
:100DA00000633B810123BB7207F1080319464C48DD
:100DB000FFF71FFCFB7B03F48073002B00F08780A0
:100DC0004FF480533B810623BB720123FB7207F172
:100DD000080319464248FFF70CFC78E07B68414A5B
:100DE000934236D104233B810623BB720123FB725D
:100DF00007F1080319463A48FFF7FBFB08233B813C
:100E00000123BB7207F1080319463548FFF7F1FBD0
:100E1000FB7B03F40073002B09D001233B810123EA
:100E2000BB7207F1080319462D48FFF7E2FBFB7B75
:100E300003F48073002B4AD002233B810623BB724C
:100E40000123FB7207F1080319462548FFF7D1FB80
:100E50003DE07B68234A934239D14FF480633B8164
:100E60000623BB720123FB7207F1080319461E48D3
:100E7000FFF7BFFB4FF400633B810123BB7207F117
:100E8000080319461848FFF7B4FBFB7B03F4007313
:100E9000002B0AD04FF400533B810123BB7207F1B2
:100EA000080319461048FFF7A4FBFB7B03F480738B
:100EB000002B0CD04FF480433B810623BB720123EF
:100EC000FB7207F1080319460548FFF792FB00BFC4
:100ED0001037BD4680BD00BF2C0000200038014007
:100EE0000008014000440040000C014080B485B07F
:100EF00000AFF860B9601346FB71FB79012B06D196
:100F000000BFFB681B6803F08003002BF9D0BB68AF
:100F10001B88DAB2FB685A6000BF1437BD4680BC3C
:100F20007047000080B485B000AFF860B960134628
:100F3000FB71FB79012B06D100BFFB681B6803F036
:100F40002003002BF9D00D4B1B685B7A002B07D1D7
:100F5000FB685B689BB2DBB29AB2BB681A8007E0A1
:100F6000FB685B689BB203F07F039AB2BB681A8090
:100F700000BF1437BD4680BC704700BF2C00002066
:100F800080B500AFFFF7F4F800BF80BD80B500AFBB
:100F9000024B1B681B69984700BF80BD2C000020D6
:100FA00080B500AF024B1B681B69984700BF80BD2E
:100FB0002C00002070B500250C4E0D4CA41BA41075
:100FC000A54209D100F01AF800250A4E0A4CA41BCC
:100FD000A410A54205D170BD56F8253098470135BB
:100FE000EEE756F8253098470135F2E7141000086F
:100FF000141000081410000818100008F8B500BFFD
:10100000F8BC08BC9E467047F8B500BFF8BC08BCE9
:041010009E46704741
:04101400550100087A
:04101800310100089A
:08101C000000000001020304C2
:04000005080002B934
:00000001FF
