:100000000C942A000C94D3000C94FA000C94210157
:100010000C9447000C9447000C9447000C94470044
:100020000C9447000C9447000C9447000C94470034
:100030000C9447000C9447000C9447000C94470024
:100040000C9447000C9447000C9447000C94470014
:100050000C94470011241FBECFE5D8E0DEBFCDBF12
:1000600010E0A0E6B0E0E2EAF4E002C005900D92F4
:10007000A236B107D9F720E0A2E6B0E001C01D9298
:10008000AA36B207E1F70E94CE000C944F020C94FE
:100090000000CF93DF9300D000D0CDB7DEB71A8237
:1000A000198214C01C821B8206C02B813C812F5FE9
:1000B0003F4F3C832B832B813C81283E3340A8F368
:1000C00029813A812F5F3F4F3A83298329813A81E1
:1000D0002817390738F30F900F900F900F90DF918A
:1000E000CF9108951F93CF93DF93CDB7DEB72C97B1
:1000F0000FB6F894DEBF0FBECDBF80E189831A82B0
:100100001C821B821D8281E08E831F8218861A86C4
:100110001986BE016F5F7F4F86E390E00E948F01DA
:1001200086E390E00E94E60110E011C081E0012E1C
:1001300001C0880F0A94EAF78B8782E08C87BE01A2
:10014000655F7F4F89E390E00E9448011F5F183090
:1001500068F32C960FB6F894DEBF0FBECDBFDF91CB
:10016000CF911F9108956091600089E390E00E9413
:1001700086016091600086E390E00E94DF0180913B
:1001800060008F5F809360008A3018F081E0809378
:10019000600088EE93E00E94490008950E9472007A
:1001A0000E94B300FDCF1F920F920FB60F92112441
:1001B0002F933F934F935F936F937F938F939F936F
:1001C000AF93BF93EF93FF93E0916200F0916300D0
:1001D0000995FF91EF91BF91AF919F918F917F9181
:1001E0006F915F914F913F912F910F900FBE0F90A4
:1001F0001F9018951F920F920FB60F9211242F93F4
:100200003F934F935F936F937F938F939F93AF939E
:10021000BF93EF93FF93E0916400F091650009951F
:10022000FF91EF91BF91AF919F918F917F916F91CE
:100230005F914F913F912F910F900FBE0F901F90A4
:1002400018951F920F920FB60F9211242F933F9380
:100250004F935F936F937F938F939F93AF93BF93CE
:10026000EF93FF93E0916600F09167000995FF918D
:10027000EF91BF91AF919F918F917F916F915F911E
:100280004F913F912F910F900FBE0F901F90189597
:10029000FC01DB0111968C91119781110BC09181AA
:1002A0008C9180958923818392818C91809589237B
:1002B00082830895813051F491818C9180958923B6
:1002C000818392818C91892B8283089591818C9175
:1002D000892B818311968C911197833029F4928117
:1002E0008C91892B8283089592818C9180958923AA
:1002F00082830895FC01413021F48281682B62835E
:10030000089592816095692362830895FC01628358
:100310000895FC01108281818E7F818308950F935F
:100320001F93CF93DF93EC018B010E948901888199
:1003300080648883F8018081803119F4888180612C
:100340008883F8018181803219F4888180628883F2
:100350008881877F88839881F8018281892B8883AF
:1003600088818B7F888398818481892B888386818B
:10037000813041F489818160898398818581892BCD
:10038000888308C089818E7F89839881F80185815F
:10039000892B8883F8018781882361F088818068B0
:1003A00088838FB780688FBF80859185909369001F
:1003B00080936800DF91CF911F910F910895FC0108
:1003C000628391819923ECF7828108951F93CF93E3
:1003D000DF9300D0CDB7DEB7FC01808184FF30C051
:1003E00080E1898313E01A8341E060E186E390E0D5
:1003F0000E947A01BE016F5F7F4F86E390E00E940A
:10040000480180E289831A83BE016F5F7F4F86E3D4
:1004100090E00E94480180E489831A82BE016F5FE8
:100420007F4F86E390E00E94480180E889831A8329
:10043000BE016F5F7F4F86E390E00E94480129C0B4
:1004400080E189831A82BE016F5F7F4F86E390E06F
:100450000E94480180E289831A82BE016F5F7F4F4C
:1004600086E390E00E94480180E4898383E08A83E8
:10047000BE016F5F7F4F86E390E00E94480180E8F5
:1004800089831A82BE016F5F7F4F86E390E00E94EE
:1004900048010F900F90DF91CF911F910895F8942C
:0204A000FFCF8C
:0204A200010057
:00000001FF
