:100000000C942A000C943F000C943F000C943F0089
:100010000C943F000C943F000C943F000C943F0064
:100020000C943F000C943F000C943F000C943F0054
:100030000C943F000C943F000C943F000C943F0044
:100040000C943F000C943F000C943F000C943F0034
:100050000C943F0011241FBECFE5D8E0DEBFCDBF1A
:1000600010E0A0E6B0E0E2E7F0E102C005900D92FA
:10007000A63CB107D9F70E9436020C9437080C94BD
:10008000000081B3807F81BB81B3806F81BB8FEF24
:1000900082BB08950F931F93CF93DF9340E050E00E
:1000A000A1C032B3E0E6F0E081E090E08C01008096
:1000B00002C0000F111F0A94E2F7EC01048002C095
:1000C000CC0FDD1F0A94E2F7DC01008402C0AA0F06
:1000D000BB1F0A94E2F7BC01048402C0660F771FBD
:1000E0000A94E2F72C2F202B2A2B262B232B22BB22
:1000F00022B3FA01EE0FFF1FEE0FFF1FE05AFF4F72
:10010000008002C0880F991F0A94E2F7809582232D
:1001100082BB60E070E060C080B3FB01EE0FFF1FA8
:10012000EE0FFF1FE059FF4F3081232F90E002C0F8
:10013000959587953A95E2F780FD4CC080B390E0A5
:10014000022E02C0959587950A94E2F780FFF6CFBC
:1001500041305105C9F024F44115510541F03AC030
:1001600042305105F1F04330510541F133C0611582
:100170007105F1F161307105E9F162307105E1F16C
:100180006330710539F53AC061157105C9F1613007
:100190007105C1F162307105B9F163307105D1F4B7
:1001A00035C061157105A1F16130710599F16230B9
:1001B000710591F16330710569F430C06115710505
:1001C00079F16130710571F16230710569F1633067
:1001D000710561F16F5F7F4F643071050CF49CCF46
:1001E0004F5F5F4F443051050CF45BCF8EE41FC06E
:1001F00087E31DC084E31BC081E319C08FE317C0F0
:1002000088E315C085E313C082E311C080E30FC00B
:1002100089E30DC086E30BC083E309C08DE307C00B
:100220008FE205C08AE203C08DE201C08BE2DF915C
:10023000CF911F910F91089588B3877F88BB82E487
:100240008A95F1F700C088B3886088BB82E48A95FC
:10025000F1F700C008958AB38F708ABB88B38460B9
:1002600088BB88B38D7F88BB0E941C0188B38B7FBD
:1002700088BB8AB3806F8ABB0895CF93C82F0E9432
:100280002B01CBBB88B3897F88BB89EF90E00197B6
:10029000F1F700C000000E941C01CF91089581E099
:1002A0000E943D01089587E893E10197F1F700C0AE
:1002B000000087B38E6087BB88B3817F88BB8FEFD8
:1002C0008ABB87E893E10197F1F700C000000E9424
:1002D0004F0188E30E943D0186E00E943D0180E8D5
:1002E0000E943D018FE00E943D010895CF93C82FE9
:1002F0000E942B0188B3826088BB88B38B7F88BB48
:10030000CBBB81E28A95F1F700000E941C01CF91DE
:100310000895CF93DF93C82FD62F813031F4603109
:1003200020F480E8860F0E943D01C23031F4D031C4
:1003300020F480EC8D0F0E943D01DF91CF91089554
:10034000CF92DF92EF92FF92CF93DF93EC01C12C1B
:10035000D12C760122C09FEFC91AD90AE90AF90AFD
:1003600021960E94760180E1C816D104E104F104CF
:1003700029F460E082E00E9489010FC090E2C91672
:10038000D104E104F10449F40E944F0160E081E0EE
:100390000E948901C12CD12C760188818111DBCF8B
:1003A000DF91CF91FF90EF90DF90CF9008958F92E3
:1003B0009F92AF92BF92CF92DF92EF92FF920F93F4
:1003C0001F93CF93DF93CDB7DEB760970FB6F89446
:1003D000DEBF0FBECDBF4B015C010E94F8036B0175
:1003E0007C01072E000C880B990B0E9430049B01A6
:1003F000AC01C501B4010E94140320E030E04AE7DB
:1004000054E40E94E0040E94F8039B01772324F443
:1004100022273327261B370B3F932F93DF92CF9250
:1004200083E890E09F938F938E010F5F1F4F1F9380
:100430000F930E944D05C8010E94A0010FB6F894C9
:10044000DEBF0FBECDBF60960FB6F894DEBF0FBE05
:10045000CDBFDF91CF911F910F91FF90EF90DF9073
:10046000CF90BF90AF909F908F9008950E945301BE
:100470000E9441008BE890E00E94A0012FE78AE1F2
:1004800096E0215080409040E1F700C000000E94BB
:100490004F01412C512C3201730162015301420181
:1004A00010E0D0E00E944A00C82F8E34D9F38F3379
:1004B00061F40E944F01412C512C32017301620101
:1004C0005301420110E0D0E0EDCF80ED8C0F8A3077
:1004D00008F03FC08C2F0E947601D1111DC020E092
:1004E00030E040E251E4C501B4010E94E0044B0158
:1004F0005C016C2F70E060537109072E000C880BB3
:10050000990B0E9430049B01AC01C501B4010E940B
:1005100015034B015C01C6CF20E030E040E251E41E
:10052000C701B6010E94E0046B017C016C2F70E0F2
:1005300060537109072E000C880B990B0E94300440
:100540009B01AC01C701B6010E9415036B017C0140
:10055000A9CFCB3231F0CD3221F0CA3211F0CF32F7
:1005600031F48C2F0E9476011C2FD1E09BCFCD332C
:1005700009F098CF60E082E00E94890187EA90E06C
:100580000E94A0011B3249F018F41A32C1F047C092
:100590001D3261F01F32E1F042C0A7019601C50192
:1005A000B4010E9415032B013C0139C0A70196013B
:1005B000C501B4010E9414032B013C0130C0A70106
:1005C0009601C501B4010E94E0042B013C0127C043
:1005D00020E030E0A901C701B6010E948103882311
:1005E00049F0A7019601C501B4010E9486032B01C1
:1005F0003C0115C00E944F0187E893E10197F1F794
:1006000000C0000081EB90E00E94A00160E082E069
:100610000E94890189EB90E00E94A00143CFC301B1
:10062000B2010E94D7013ECF5058BB27AA270E9493
:100630002C030C94A6040E94980438F00E949F0496
:1006400020F039F49F3F19F426F40C9495040EF42D
:10065000E095E7FB0C948F04E92F0E94B70458F350
:10066000BA17620773078407950720F079F4A6F597
:100670000C94D9040EF4E0950B2EBA2FA02D0B018B
:10068000B90190010C01CA01A0011124FF27591BD7
:1006900099F0593F50F4503E68F11A16F040A22FDD
:1006A000232F342F4427585FF3CF4695379527954E
:1006B000A795F0405395C9F77EF41F16BA0B620B4D
:1006C000730B840BBAF09150A1F0FF0FBB1F661F94
:1006D000771F881FC2F70EC0BA0F621F731F841FD7
:1006E00048F4879577956795B795F7959E3F08F0FD
:1006F000B0CF9395880F08F09927EE0F97958795BF
:1007000008950E946B0408F481E008950E949A0302
:100710000C94A6040E949F0458F00E94980440F094
:1007200029F45F3F29F00C948F0451110C94DA04E2
:100730000C9495040E94B70468F39923B1F35523F0
:1007400091F3951B550BBB27AA27621773078407E4
:1007500038F09F5F5F4F220F331F441FAA1FA9F37A
:1007600035D00E2E3AF0E0E832D091505040E69568
:10077000001CCAF72BD0FE2F29D0660F771F881FC9
:10078000BB1F261737074807AB07B0E809F0BB0BBC
:10079000802DBF01FF2793585F4F3AF09E3F5105D0
:1007A00078F00C948F040C94DA045F3FE4F3983EE5
:1007B000D4F3869577956795B795F7959F5FC9F7B9
:1007C000880F911D9695879597F90895E1E0660F3A
:1007D000771F881FBB1F621773078407BA0720F0B3
:1007E000621B730B840BBA0BEE1F88F7E09508951C
:1007F0000E94FF036894B1110C94DA0408950E94DA
:10080000BF0488F09F5798F0B92F9927B751B0F0DF
:10081000E1F0660F771F881F991F1AF0BA95C9F784
:1008200014C0B13091F00E94D904B1E008950C9445
:10083000D904672F782F8827B85F39F0B93FCCF3F8
:10084000869577956795B395D9F73EF49095809501
:10085000709561957F4F8F4F9F4F0895E89409C021
:1008600097FB3EF490958095709561957F4F8F4FE3
:100870009F4F9923A9F0F92F96E9BB279395F695F9
:10088000879577956795B795F111F8CFFAF4BB0F77
:1008900011F460FF1BC06F5F7F4F8F4F9F4F16C0DB
:1008A000882311F096E911C0772321F09EE8872F65
:1008B000762F05C0662371F096E8862F70E060E021
:1008C0002AF09A95660F771F881FDAF7880F96959A
:1008D000879597F90895990F0008550FAA0BE0E83E
:1008E000FEEF16161706E807F907C0F012161306F2
:1008F000E407F50798F0621B730B840B950B39F432
:100900000A2661F0232B242B252B21F408950A2697
:1009100009F4A140A6958FEF811D811D089597F9D7
:100920009F6780E870E060E008959FEF80EC089595
:1009300000240A94161617061806090608950024BE
:100940000A9412161306140605060895092E039438
:10095000000C11F4882352F0BB0F40F4BF2B11F4AC
:1009600060FF04C06F5F7F4F8F4F9F4F089557FD0B
:100970009058440F551F59F05F3F71F04795880F0D
:1009800097FB991F61F09F3F79F0879508951216A4
:1009900013061406551FF2CF4695F1DF08C0161650
:1009A00017061806991FF1CF869571056105089401
:1009B0000895E894BB2766277727CB0197F9089518
:1009C0000E94F3040C94A6040E94980438F00E943C
:1009D0009F0420F0952311F00C948F040C9495043F
:1009E00011240C94DA040E94B70470F3959FC1F3AC
:1009F000950F50E0551F629FF001729FBB27F00DCD
:100A0000B11D639FAA27F00DB11DAA1F649F662721
:100A1000B00DA11D661F829F2227B00DA11D621F70
:100A2000739FB00DA11D621F839FA00D611D221F2A
:100A3000749F3327A00D611D231F849F600D211D0E
:100A4000822F762F6A2F11249F5750409AF0F1F091
:100A500088234AF0EE0FFF1FBB1F661F771F881FFA
:100A600091505040A9F79E3F510580F00C948F049F
:100A70000C94DA045F3FE4F3983ED4F386957795BF
:100A80006795B795F795E7959F5FC1F7FE2B880FA0
:100A9000911D9695879597F90895AEE0B0E0E3E54E
:100AA000F5E00C940E080D891E8986E08C831A836C
:100AB00009838FEF9FE79E838D83AE01475E5F4F73
:100AC0006F89788DCE0101960E946F05EF81F885C0
:100AD000E00FF11F10822E96E4E00C942A08ABE0A0
:100AE000B0E0E5E7F5E00C9400086C017B018A01B9
:100AF000FC0117821682838181FFCCC1CE01019651
:100B00003C01F6019381F70193FD859193FF81915B
:100B10007F01882309F4BAC1853239F493FD8591A8
:100B200093FF81917F01853229F4B60190E00E9404
:100B30006607E7CF912C212C312CFFE1F315D8F07B
:100B40008B3279F038F4803279F08332A1F4232D9E
:100B500020611DC08D3261F0803369F4232D216046
:100B600016C0832D8260382EE32DE4603E2E2AC00D
:100B7000F32DF8601DC037FC2DC020ED280F2A3062
:100B800040F08E32B9F436FC81C1232D2064322E20
:100B900019C036FE06C08AE0989E200D1124922EC0
:100BA00011C0EAE02E9E200D1124222EF32DF062BA
:100BB0003F2E08C08C3621F4832D8068382E02C069
:100BC000883641F4F70193FD859193FF81917F0170
:100BD0008111B3CF982F9F7D9554933028F40C5FEB
:100BE0001F4F9FE399830DC0833631F0833771F037
:100BF000833509F059C021C0F801808189830E5FD7
:100C00001F4F88248394912C530113C02801F2E0D4
:100C10004F0E511CF801A080B18036FE03C0692D33
:100C200070E002C06FEF7FEFC5010E945B074C01CF
:100C30008201F32DFF773F2E16C0280122E0420EDD
:100C4000511CF801A080B18036FE03C0692D70E010
:100C500002C06FEF7FEFC5010E9450074C01F32DDA
:100C6000F0683F2E820133FC1BC0822D90E0881675
:100C70009906B0F4B60180E290E00E9466072A94DB
:100C8000F4CFF50137FC859137FE81915F01B60104
:100C900090E00E94660721102A9421E0821A9108B0
:100CA0008114910471F7E8C0843611F0893641F55A
:100CB000F80137FE07C060817181828193810C5FEA
:100CC0001F4F08C060817181072E000C880B990BA3
:100CD0000E5F1F4FF32DFF763F2E97FF09C09095B3
:100CE0008095709561957F4F8F4F9F4FF0683F2E95
:100CF0002AE030E0A3010E94A207882E861845C092
:100D0000853731F4232D2F7EB22E2AE030E025C026
:100D1000932D997FB92E8F36C1F018F4883579F06C
:100D2000B5C0803719F0883721F0B0C0E92FE061F5
:100D3000BE2EB4FE0DC0FB2DF460BF2E09C034FEE4
:100D40000AC0292F2660B22E06C028E030E005C078
:100D500020E130E002C020E132E0F801B7FE07C038
:100D600060817181828193810C5F1F4F06C0608119
:100D7000718180E090E00E5F1F4FA3010E94A207E7
:100D8000882E8618FB2DFF773F2E36FE0DC0232DB3
:100D90002E7FA22E891458F434FE0BC032FC09C0F9
:100DA000832D8E7EA82E05C0B82CA32C03C0B82C92
:100DB00001C0B92CA4FE0FC0FE01E80DF11D808119
:100DC000803321F49A2D997EA92E09C0A2FE06C077
:100DD000B394B39404C08A2D867809F0B394A3FC2D
:100DE00011C0A0FE06C0B21488F4280C922C9B18E7
:100DF0000EC0B21460F4B60180E290E00E94660773
:100E0000B394F7CFB21418F42B1802C0982C212CED
:100E1000A4FE10C0B60180E390E00E946607A2FE27
:100E200017C0A1FC03C088E790E002C088E590E00D
:100E3000B6010CC08A2D867859F0A1FE02C08BE263
:100E400001C080E2A7FC8DE2B60190E00E94660737
:100E5000891438F4B60180E390E00E9466079A9402
:100E6000F7CF8A94F301E80DF11D8081B60190E07F
:100E70000E9466078110F5CF222009F442CEB60108
:100E800080E290E00E9466072A94F6CFF601868100
:100E9000978102C08FEF9FEF2B96E2E10C941C0824
:100EA000FC010590615070400110D8F78095909535
:100EB0008E0F9F1F0895FC0161507040019001103A
:100EC000D8F7809590958E0F9F1F08950F931F93CD
:100ED000CF93DF93FB01238121FD03C08FEF9FEFB1
:100EE0002CC022FF16C046815781248135814217CC
:100EF000530744F4A081B1819D012F5F3F4F31839F
:100F000020838C93268137812F5F3F4F3783268341
:100F100014C08B01EC01FB010084F185E02D0995E3
:100F2000892BE1F6D80116968D919C911797019621
:100F300017969C938E931697CE01DF91CF911F91B8
:100F40000F910895FA01AA27283051F1203181F13B
:100F5000E8946F936E7F6E5F7F4F8F4F9F4FAF4FC1
:100F6000B1E03ED0B4E03CD0670F781F891F9A1FD4
:100F7000A11D680F791F8A1F911DA11D6A0F711D88
:100F8000811D911DA11D20D009F468943F912AE094
:100F9000269F11243019305D3193DEF6CF0108957C
:100FA000462F4770405D4193B3E00FD0C9F7F6CFAD
:100FB000462F4F70405D4A3318F0495D31FD405275
:100FC000419302D0A9F7EACFB4E0A695979587950B
:100FD00077956795BA95C9F70097610571050895EA
:100FE0009B01AC010A2E0694579547953795279596
:100FF000BA95C9F7620F731F841F951FA01D08952E
:101000002F923F924F925F926F927F928F929F9218
:10101000AF92BF92CF92DF92EF92FF920F931F9306
:10102000CF93DF93CDB7DEB7CA1BDB0B0FB6F894B7
:10103000DEBF0FBECDBF09942A88398848885F84F7
:101040006E847D848C849B84AA84B984C884DF8068
:10105000EE80FD800C811B81AA81B981CE0FD11D4C
:101060000FB6F894DEBF0FBECDBFED010895F89422
:02107000FFCFB0
:101072000400000005000000060000000700000058
:101082000000000001000000020000000300000058
:1010920025640025642E253033640057656C636F28
:1010A2006D6520746F2042656C616C2043616C63D6
:1010B200756C61746F7200526573756C74203D209B
:1010C200004552524F52203A0044697669646520C5
:0610D2004279203000000D
:00000001FF
