:020000040800F2
:100000000028002095020008E5020008E50200082B
:10001000E5020008E5020008E50200080000000013
:10002000000000000000000000000000E5020008E1
:10003000E502000800000000E5020008E5020008F3
:10004000E5020008E5020008E5020008E5020008F4
:10005000E5020008E5020008E5020008E5020008E4
:10006000E5020008E5020008E5020008E5020008D4
:10007000E5020008E5020008E5020008E5020008C4
:10008000E5020008E5020008E5020008E5020008B4
:10009000E5020008E5020008E5020008E5020008A4
:1000A000E5020008E5020008E5020008E502000894
:1000B000E5020008E5020008E5020008E502000884
:1000C000E5020008E5020008E5020008E502000874
:1000D000E5020008E5020008E5020008E502000864
:1000E000E5020008E502000800000000E502000843
:1000F000E5020008E5020008E5020008E502000844
:10010000E5020008E5020008E5020008E502000833
:10011000E5020008E5020008E5020008E502000823
:10012000E5020008E5020008E5020008E502000813
:1001300010B5054C237833B9044B13B10448AFF321
:1001400000800123237010BD00000020000000008B
:10015000BC04000808B5034B1BB103490348AFF3C7
:10016000008008BD0000000004000020BC0400085E
:1001700080B400AF074B9B69064A43F004039361C8
:10018000044B9B69034A43F00803936100BFBD46DB
:1001900080BC70470010024080B582B000AF0223DF
:1001A000BB800123BB713B1D1946144800F0FEF8CB
:1001B0000223BB800423BB710123FB713B1D194645
:1001C0000F4800F0F3F84FF40053BB800123BB71DC
:1001D0003B1D1946094800F0E9F84FF40053BB8075
:1001E0000423BB710123FB713B1D1946044800F039
:1001F000DDF800BF0837BD4680BD00BF00080140E4
:10020000000C014080B485B000AF78600023FB6033
:100210000BE00023BB6002E0BB680133BB60BB683E
:10022000FE2BF9D9FB680133FB607B68FA689A42C0
:10023000EFD300BF1437BD4680BC704780B500AF18
:10024000FFF796FFFFF7A8FF0221104800F0ECF837
:100250000346002B0BD102210D4800F0F9F800BF36
:1002600002210A4800F0E0F80346002BF8D00021F4
:10027000064800F0D9F80346012B03D100210448B9
:1002800000F0E6F80120FFF7BDFFDDE700080140C0
:10029000000C01400D488546AFF300800C480D4925
:1002A0000D4A002302E0D458C4500433C4188C42D1
:1002B000F9D30A4A0A4C002301E013600432A24237
:1002C000FBD300F0D7F8FFF7B9FFFEE700280020C6
:1002D0000000002000000020DC04000800000020D6
:1002E0001C000020FEE780B483B000AF0346FB8013
:1002F000FB88802B42D0802B11DC082B36D0082BBA
:1003000006DC022B2ED0042B2ED0012B28D047E068
:10031000202B2FD0402B2FD0102B29D040E0B3F52D
:10032000006F33D0B3F5006F09DCB3F5007F29D03F
:10033000B3F5806F28D0B3F5807F21D030E0B3F5DE
:10034000005F27D0B3F5005F03DCB3F5805F1FD0FB
:1003500026E0B3F5804F1FD0B3F5004F1ED01FE04D
:1003600000231EE004231CE008231AE00C2318E0FD
:10037000102316E0142314E0182312E01C2310E0CD
:1003800000230EE004230CE008230AE00C2308E01D
:10039000102306E0142304E0182302E01C2300E0ED
:1003A000002318460C37BD4680BC704790B585B019
:1003B00000AF786039600023FB600023FB723B686C
:1003C0001B88FF2B01D87B6801E07B680433FB604E
:1003D0003B681B881846FFF786FF0346DA43FB6835
:1003E0001B681A40FB681A603B689B78043B9B00C3
:1003F0005AB23B68DB785BB213435BB2DBB203F00B
:100400000F03FB72FC7A3B681B881846FFF76BFFF3
:10041000034604FA03F2FB681B681A43FB681A6080
:1004200000BF1437BD4690BD80B483B000AF786084
:100430000B46FB707B689A68FB781340002B14BF57
:1004400001230023DBB218460C37BD4680BC704741
:1004500080B483B000AF78600B46FB707B68DA68CD
:10046000FB785A407B68DA6000BF0C37BD4680BC21
:100470007047000070B500250C4E0D4CA41BA41055
:10048000A54209D100F01AF800250A4E0A4CA41B17
:10049000A410A54205D170BD56F825309847013506
:1004A000EEE756F8253098470135F2E7D404000806
:1004B000D4040008D4040008D8040008F8B500BF2C
:1004C000F8BC08BC9E467047F8B500BFF8BC08BC35
:0404D0009E4670478D
:0404D40055010008C6
:0404D80031010008E6
:040000050800029558
:00000001FF
