:100000000C942A000C949B000C94C2000C94E90000
:100010000C9447000C9447000C9447000C94470044
:100020000C9447000C9447000C9447000C94470034
:100030000C9447000C9447000C9447000C94470024
:100040000C9447000C9447000C9447000C94470014
:100050000C94470011241FBECFE5D8E0DEBFCDBF12
:1000600010E0A0E6B0E0E2E3F4E002C005900D92FB
:10007000A036B107D9F720E0A0E6B0E001C01D929C
:10008000A936B207E1F70E9496000C9417020C946F
:1000900000001F93CF93DF93CDB7DEB72C970FB639
:1000A000F894DEBF0FBECDBF19821A821C821B825C
:1000B0001D8281E08E831F8218861A861986BE01F2
:1000C0006F5F7F4F86E390E00E94570186E390E0E8
:1000D0000E94AE0110E011C081E0012E01C0880F26
:1000E0000A94EAF78B8782E08C87BE01655F7F4FB9
:1000F00089E390E00E9410011F5F183068F32C968E
:100100000FB6F894DEBF0FBECDBFDF91CF911F9128
:10011000089560E086E390E00E94A701809360006C
:10012000682F89E390E00E944E0108950E944900E3
:100130000E948900FDCF1F920F920FB60F921124DB
:100140002F933F934F935F936F937F938F939F93DF
:10015000AF93BF93EF93FF93E0916100F091620042
:100160000995FF91EF91BF91AF919F918F917F91F1
:100170006F915F914F913F912F910F900FBE0F9014
:100180001F9018951F920F920FB60F9211242F9364
:100190003F934F935F936F937F938F939F93AF930F
:1001A000BF93EF93FF93E0916300F0916400099592
:1001B000FF91EF91BF91AF919F918F917F916F913F
:1001C0005F914F913F912F910F900FBE0F901F9015
:1001D00018951F920F920FB60F9211242F933F93F1
:1001E0004F935F936F937F938F939F93AF93BF933F
:1001F000EF93FF93E0916500F09166000995FF9100
:10020000EF91BF91AF919F918F917F916F915F918E
:100210004F913F912F910F900FBE0F901F90189507
:10022000FC01DB0111968C91119781110BC091811A
:100230008C9180958923818392818C9180958923EB
:1002400082830895813051F491818C918095892326
:10025000818392818C91892B8283089591818C91E5
:10026000892B818311968C911197833029F4928187
:100270008C91892B8283089592818C91809589231A
:1002800082830895FC01413021F48281682B6283CE
:10029000089592816095692362830895FC016283C9
:1002A0000895FC01108281818E7F818308950F93D0
:1002B0001F93CF93DF93EC018B010E945101888142
:1002C00080648883F8018081803119F4888180619D
:1002D0008883F8018181803219F488818062888363
:1002E0008881877F88839881F8018281892B888320
:1002F00088818B7F888398818481892B88838681FC
:10030000813041F489818160898398818581892B3D
:10031000888308C089818E7F89839881F8018581CF
:10032000892B8883F8018781882361F08881806820
:1003300088838FB780688FBF808591859093680090
:1003400080936700DF91CF911F910F910895FC0179
:10035000628391819923ECF7828108951F93CF9353
:10036000DF9300D0CDB7DEB7FC01808184FF30C0C1
:1003700080E1898313E01A8341E060E186E390E045
:100380000E944201BE016F5F7F4F86E390E00E94B2
:10039000100180E289831A83BE016F5F7F4F86E37D
:1003A00090E00E94100180E489831A82BE016F5F91
:1003B0007F4F86E390E00E94100180E889831A83D2
:1003C000BE016F5F7F4F86E390E00E94100129C05D
:1003D00080E189831A82BE016F5F7F4F86E390E0E0
:1003E0000E94100180E289831A82BE016F5F7F4FF5
:1003F00086E390E00E94100180E4898383E08A8391
:10040000BE016F5F7F4F86E390E00E94100180E89D
:1004100089831A82BE016F5F7F4F86E390E00E945E
:1004200010010F900F90DF91CF911F910895F894D4
:02043000FFCFFC
:00000001FF
