:100000000C942A000C9434000C9434000C943400AA
:100010000C9434000C9434000C9434000C94340090
:100020000C9434000C9434000C9434000C94340080
:100030000C9434000C9434000C9434000C94340070
:100040000C9434000C9434000C9434000C94340060
:100050000C94340011241FBECFE5D8E0DEBFCDBF25
:100060000E9436000C9470000C94000081B38E7FC7
:1000700081BB82B38E7F82BB81B3806281BB81B33F
:10008000806481BB81B3806881BB82B38F7D82BB7A
:1000900082B38F7B82BB82B38F7782BB80E0809BF1
:1000A000FECF8F5F813021F492B3906292BB0CC07F
:1000B000823021F492B3906492BB06C0833021F465
:1000C00082B3806882BB80E02FE936E891E021505E
:1000D00030409040E1F700C000008099FECFDFCFB4
:0400E000F894FFCFC2
:00000001FF
