:100000000C942A000C9434000C9434000C943400AA
:100010000C9434000C9434000C9434000C94340090
:100020000C9434000C9434000C9434000C94340080
:100030000C9434000C9434000C9434000C94340070
:100040000C9434000C9434000C9434000C94340060
:100050000C94340011241FBECFE5D8E0DEBFCDBF25
:100060000E9436000C944C000C94000081B38E7FEB
:1000700081BB82B38E7F82BB81B3806181BB82B33F
:100080008F7E82BB809B04C082B3806182BBFACF2B
:0C00900082B38F7E82BBF6CFF894FFCFC6
:00000001FF
