:100000000C942A000C94DC010C9403020C942A0238
:100010000C9447000C9447000C9447000C94470044
:100020000C9447000C9447000C9447000C94470034
:100030000C9447000C9447000C9447000C94470024
:100040000C9447000C9447000C9447000C94470014
:100050000C94470011241FBECFE5D8E0DEBFCDBF12
:1000600010E0A0E6B0E0E0EAF6E002C005900D92F4
:10007000A036B107D9F720E0A0E6B0E001C01D929C
:10008000AA36B207E1F70E94D7010C944E030C94F4
:100090000000CF93DF9300D000D0CDB7DEB71A8237
:1000A000198214C01C821B8206C02B813C812F5FE9
:1000B0003F4F3C832B832B813C81283E3340A8F368
:1000C00029813A812F5F3F4F3A83298329813A81E1
:1000D0002817390738F30F900F900F900F90DF918A
:1000E000CF9108950F931F93CF93DF93082F162F6F
:1000F000EA0140E060E186E390E00E9483020A8327
:1001000089818823ECF71A8389818823ECF741E001
:1001100060E186E390E00E948302DF91CF911F911E
:100120000F910895CF93DF93CDB7DEB72A970FB61F
:10013000F894DEBF0FBECDBF0E94B40180E1898379
:100140001A821C821B821D8282E08E831F82188687
:100150001A861986BE016F5F7F4F8DE290E00E9484
:1001600095028DE290E00E94E5024DE250E06FEFD3
:1001700089E00E9472004DE250E06FEF8AE00E9439
:1001800072004DE250E067EF8BE00E9472004DE29A
:1001900050E061E08CE00E9472002A960FB6F8945D
:1001A000DEBF0FBECDBFDF91CF91089581E0809378
:1001B00061000FC06091600091E0960F9093600025
:1001C0004DE250E00E947200809161008F5F809349
:1001D000610080916100893068F388EE93E00E94AD
:1001E000490008951F93CF93DF9300D0CDB7DEB7BA
:1001F00012E019831A83BE016F5F7F4F86E390E0A0
:100200000E94510284E089831A83BE016F5F7F4F91
:1002100086E390E00E94510288E089831A83BE0140
:100220006F5F7F4F86E390E00E94510280E18983F7
:100230001A83BE016F5F7F4F89E390E00E945102F5
:1002400080E289831A83BE016F5F7F4F89E390E06C
:100250000E94510280E489831A83BE016F5F7F4F41
:1002600089E390E00E94510280E889831A83BE01ED
:100270006F5F7F4F89E390E00E94510240E068E0A9
:1002800086E390E00E94830240E062E086E390E033
:100290000E94830240E064E086E390E00E948302D3
:1002A0000F900F90DF91CF911F91089540E068E08B
:1002B00086E390E00E94830220E030E009C00196CE
:1002C00002C080E090E08F3F9105C8F32F5F3F4F61
:1002D00022303105B0F341E068E086E390E00E940F
:1002E000830220E030E009C0019602C080E090E087
:1002F0008F3F9105C8F32F5F3F4F22303105B0F398
:100300000895CF93C82F8BB38F709C2F907F892B2C
:100310008BBB40E062E086E390E00E94830240E015
:1003200064E086E390E00E9483020E9456012BB3B2
:1003300030E1C39FC0011124922F9F70892B8BBB8A
:1003400040E062E086E390E00E94830240E064E0E7
:1003500086E390E00E9483020E945601CF910895A7
:1003600081E00E948101089520E030E009C00196FB
:1003700002C080E090E08F3F9105C8F32F5F3F4FB0
:1003800024313105B0F30E94F2000E94B00182E0F6
:100390000E94810188E20E94810186E00E94810121
:1003A00080E80E9481018FE00E94810108950E94EF
:1003B00092000E94D600FDCF1F920F920FB60F92AF
:1003C00011242F933F934F935F936F937F938F935A
:1003D0009F93AF93BF93EF93FF93E0916200F091EF
:1003E00063000995FF91EF91BF91AF919F918F911C
:1003F0007F916F915F914F913F912F910F900FBE21
:100400000F901F9018951F920F920FB60F92112404
:100410002F933F934F935F936F937F938F939F930C
:10042000AF93BF93EF93FF93E0916400F091650069
:100430000995FF91EF91BF91AF919F918F917F911E
:100440006F915F914F913F912F910F900FBE0F9041
:100450001F9018951F920F920FB60F9211242F9391
:100460003F934F935F936F937F938F939F93AF933C
:10047000BF93EF93FF93E0916600F09167000995B9
:10048000FF91EF91BF91AF919F918F917F916F916C
:100490005F914F913F912F910F900FBE0F901F9042
:1004A0001895FC01DB0111968C91119781110BC0FD
:1004B00091818C9180958923818392818C91809503
:1004C000892382830895813051F491818C918095A4
:1004D0008923818392818C91892B828308959181D4
:1004E0008C91892B818311968C911197833029F4FB
:1004F00092818C91892B8283089592818C91809531
:10050000892382830895FC01413021F48281682B84
:100510006283089592816095692362830895FC0146
:10052000108281818E7F818308950F931F93CF93D3
:10053000DF93EC018B010E948F02888180648883A5
:10054000F8018081803119F4888180618883F80105
:100550008181803219F48881806288838881877FD5
:1005600088839881F8018281892B888388818B7F99
:10057000888398818481892B88838681813041F4A6
:1005800089818160898398818581892B888308C0CE
:1005900089818E7F89839881F8018581892B888361
:1005A000F8018781882361F08881806888838FB70C
:1005B00080688FBF808591859093690080936800E3
:1005C000DF91CF911F910F9108951F93CF93DF93E8
:1005D00000D0CDB7DEB7FC01808184FF30C080E160
:1005E000898313E01A8341E060E186E390E00E9492
:1005F0008302BE016F5F7F4F86E390E00E9451024D
:1006000080E289831A83BE016F5F7F4F86E390E0AB
:100610000E94510280E489831A82BE016F5F7F4F7E
:1006200086E390E00E94510280E889831A83BE012C
:100630006F5F7F4F86E390E00E94510229C080E106
:1006400089831A82BE016F5F7F4F86E390E00E942C
:10065000510280E289831A82BE016F5F7F4F86E379
:1006600090E00E94510280E4898383E08A83BE0186
:100670006F5F7F4F86E390E00E94510280E889839C
:100680001A82BE016F5F7F4F86E390E00E945102A5
:100690000F900F90DF91CF911F910895F894FFCFA5
:00000001FF
