S00F0000447269766572732E7372656336
S11300000C942A000C943F000C943F000C943F0085
S11300100C943F000C943F000C943F000C943F0060
S11300200C943F000C943F000C943F000C943F0050
S11300300C943F000C943F000C943F000C943F0040
S11300400C943F000C943F000C943F000C943F0030
S11300500C943F0011241FBECFE5D8E0DEBFCDBF16
S113006010E0A0E6B0E0E4E8F4E002C005900D92F0
S1130070A637B107D9F70E94E2010C9440020C9410
S11300800000CF939DEC899F912D11249695969510
S11300909695990F292F220F220F920F891BE82F73
S11300A0F0E0E05AFF4FC0814C2F417060E183E3E0
S11300B090E00E943402C1FB442740F960E283E3EC
S11300C090E00E943402C2FB442740F960E483E3D9
S11300D090E00E943402C3FB442740F960E883E3C4
S11300E090E00E943402CF910895CF93C82F41E04D
S11300F0813009F040E064E083E390E00E94340240
S113010041E0C23009F040E068E083E390E00E94FF
S11301103402CF91089540E068E086E390E00E94C5
S1130120340220E030E009C0019602C080E090E093
S11301308F3F9105C8F32F5F3F4F22303105B0F355
S113014041E068E086E390E00E94340220E030E081
S113015009C0019602C080E090E08F3F9105C8F38A
S11301602F5F3F4F22303105B0F30895CF93C82F4E
S11301708BB38F709C2F907F892B8BBB40E062E008
S113018086E390E00E94340240E064E086E390E07D
S11301900E9434020E948B002BB330E1C39FC00144
S11301A01124922F9F70892B8BBB40E062E086E381
S11301B090E00E94340240E064E086E390E00E9414
S11301C034020E948B00CF91089581E00E94B60012
S11301D0089520E030E009C0019602C080E090E07C
S11301E08F3F9105C8F32F5F3F4F24313105B0F3A2
S11301F00E94E50082E00E94B60088E20E94B600F8
S113020086E00E94B60080E80E94B6008FE00E945B
S1130210B6000895CF93C82F8BB38F709C2F907F17
S1130220892B8BBB41E062E086E390E00E943402BC
S113023040E064E086E390E00E9434020E948B0078
S11302402BB330E1C39FC0011124922F9F70892BDF
S11302508BBB41E062E086E390E00E94340240E020
S113026064E086E390E00E9434020E948B00CF9108
S11302700895CF93DF93C82FD62F813031F46031A6
S113028020F480E8860F0E94B600C23031F4D031E9
S113029020F480EC8D0F0E94B600DF91CF91089579
S11302A0CF92DF92EF92FF92CF93DF93EC01C12CB8
S11302B0D12C760121C09FEFC91AD90AE90AF90A9B
S11302C021960E940A0180E1C816D104E104F104D8
S11302D021F460E082E00E94390190E2C916D10461
S11302E0E104F10449F40E94E50060E081E00E9429
S11302F03901C12CD12C760188818111DCCFDF91A9
S1130300CF91FF90EF90DF90CF900895CF93DF933C
S113031000D0CDB7DEB782E089838A83BE016F5FE8
S11303207F4F86E390E00E94020284E08983BE014D
S11303306F5F7F4F86E390E00E94020288E089832A
S1130340BE016F5F7F4F86E390E00E94020280E16E
S11303508983BE016F5F7F4F89E390E00E940202B0
S113036080E28983BE016F5F7F4F89E390E00E9442
S1130370020280E48983BE016F5F7F4F89E390E0CE
S11303800E94020280E88983BE016F5F7F4F89E388
S113039090E00E94020240E068E086E390E00E9460
S11303A0340240E062E086E390E00E94340240E0E0
S11303B064E086E390E00E9434020F900F90DF9196
S11303C0CF9108950E9486010E94E9008AE690E098
S11303D00E94500181E00E94750080E00E9441006B
S11303E020E030E009C0019602C080E090E08F3F39
S11303F09105C8F32F5F3F4F24363105B0F30E94B7
S1130400E500E4CFFC01DB0111968C911197811179
S11304100BC091818C9180958923818392818C91E9
S11304208095892382830895813051F491818C9140
S113043080958923818392818C91892B828308956D
S113044091818C91892B818311968C9111978330A2
S113045029F492818C91892B8283089592818C91C5
S11304608095892382830895FC01413021F482819F
S1130470682B62830895928160956923628308954D
S1070480F894FFCF1A
S113048403010B0A060C0D020F0E48656C6C6F2EEB
S10904942E2E2E2E210085
S9030000FC
