:100000000C942A000C94A5020C94CC020C94F302DC
:100010000C9447000C9447000C9447000C94470044
:100020000C9447000C9447000C9447000C94470034
:100030000C9447000C9447000C9447000C94470024
:100040000C9447000C9447000C9447000C94470014
:100050000C94470011241FBECFE5D8E0DEBFCDBF12
:1000600010E0A0E6B0E0E4EBF6E002C005900D92EF
:10007000AC36B107D9F720E0ACE6B0E001C01D9284
:10008000A237B207E1F70E9473020C9458030C9454
:1000900000001F93CF93DF9300D0CDB7DEB780E190
:1000A000898312E01A83BE016F5F7F4F89E390E07E
:1000B0000E941A0380E289831A83BE016F5F7F4F1B
:1000C00089E390E00E941A0380E489831A83BE01C9
:1000D0006F5F7F4F89E390E00E941A0380E8898375
:1000E0001A83BE016F5F7F4F89E390E00E941A037D
:1000F00084E089831A83BE016F5F7F4F83E390E0C2
:100100000E941A0388E089831A83BE016F5F7F4FC4
:1001100083E390E00E941A0340E060E183E390E013
:100120000E944C0340E060E283E390E00E944C03B5
:1001300040E060E483E390E00E944C0340E060E82C
:1001400083E390E00E944C0340E064E083E390E0AE
:100150000E944C0340E068E083E390E00E944C037F
:1001600041E064E083E390E00E944C0341E068E0FA
:1001700083E390E00E944C030F900F90DF91CF91AA
:100180001F9108951F93CF93DF93CDB7DEB72B97C1
:100190000FB6F894DEBF0FBECDBFFE0131969BE0D7
:1001A000DF011D929A95E9F791E09A8392E09B8393
:1001B00093E09C8394E09D8395E09E8396E09F83EB
:1001C00097E0988798E0998799E09A87E80FF11D62
:1001D0001081412F417060E183E390E00E944C0365
:1001E00011FB442740F960E283E390E00E944C0356
:1001F00012FB442740F960E483E390E00E944C0343
:1002000013FB442740F960E883E390E00E944C032D
:100210002B960FB6F894DEBF0FBECDBFDF91CF9106
:100220001F9108951F93CF93DF9300D0CDB7DEB712
:1002300012E019831A83BE016F5F7F4F86E390E05F
:100240000E941A0384E089831A83BE016F5F7F4F87
:1002500086E390E00E941A0388E089831A83BE0136
:100260006F5F7F4F86E390E00E941A0380E18983ED
:100270001A83BE016F5F7F4F89E390E00E941A03EB
:1002800080E289831A83BE016F5F7F4F89E390E02C
:100290000E941A0380E489831A83BE016F5F7F4F37
:1002A00089E390E00E941A0380E889831A83BE01E3
:1002B0006F5F7F4F89E390E00E941A0340E068E09F
:1002C00086E390E00E944C0340E062E086E390E029
:1002D0000E944C0340E064E086E390E00E944C03FF
:1002E0000F900F90DF91CF911F91089540E068E04B
:1002F00086E390E00E944C0320E030E009C00196C4
:1003000002C080E090E08F3F9105C8F32F5F3F4F20
:1003100022303105B0F341E068E086E390E00E94CE
:100320004C0320E030E009C0019602C080E090E07C
:100330008F3F9105C8F32F5F3F4F22303105B0F357
:100340000895CF93C82F8BB38F709C2F907F892BEC
:100350008BBB40E062E086E390E00E944C0340E00B
:1003600064E086E390E00E944C030E9476012BB388
:1003700030E1C39FC0011124922F9F70892B8BBB4A
:1003800040E062E086E390E00E944C0340E064E0DD
:1003900086E390E00E944C030E947601CF9108957D
:1003A00081E00E94A101089520E030E009C001969B
:1003B00002C080E090E08F3F9105C8F32F5F3F4F70
:1003C00024313105B0F30E9412010E94D00182E075
:1003D0000E94A10188E20E94A10186E00E94A10181
:1003E00080E80E94A1018FE00E94A1010895CF93AF
:1003F000C82F8BB38F709C2F907F892B8BBB41E0D4
:1004000062E086E390E00E944C0340E064E086E313
:1004100090E00E944C030E9476012BB330E1C39F11
:10042000C0011124922F9F70892B8BBB41E062E0A9
:1004300086E390E00E944C0340E064E086E390E0B5
:100440000E944C030E947601CF910895CF93DF93D1
:10045000C82FD62F813031F4603120F480E8860F28
:100460000E94A101C23031F4D03120F480EC8D0F14
:100470000E94A101DF91CF910895CF92DF92EF9278
:10048000FF92CF93DF93EC01C12CD12C760121C0D8
:100490009FEFC91AD90AE90AF90A21960E94F701C1
:1004A00080E1C816D104E104F10421F460E082E0A7
:1004B0000E94260290E2C916D104E104F10449F435
:1004C0000E94D00160E081E00E942602C12CD12C64
:1004D000760188818111DCCFDF91CF91FF90EF9081
:1004E000DF90CF9008950E94D4010E94490080E6D9
:1004F00090E00E943D02C9E014C08C2F0E94C2000F
:1005000020E030E009C0019602C080E090E08F3F1B
:100510009105C8F32F5F3F4F283E83E03807A8F3CB
:10052000C150CA3050F320E030E009C0019602C04B
:1005300080E090E08F3F9105C8F32F5F3F4F243656
:100540003105B0F30E94D001D2CF1F920F920FB6A7
:100550000F9211242F933F934F935F936F937F9349
:100560008F939F93AF93BF93EF93FF93E0916C00B2
:10057000F0916D000995FF91EF91BF91AF919F911F
:100580008F917F916F915F914F913F912F910F903C
:100590000FBE0F901F9018951F920F920FB60F92DB
:1005A00011242F933F934F935F936F937F938F9378
:1005B0009F93AF93BF93EF93FF93E0916E00F09101
:1005C0006F000995FF91EF91BF91AF919F918F912E
:1005D0007F916F915F914F913F912F910F900FBE3F
:1005E0000F901F9018951F920F920FB60F92112423
:1005F0002F933F934F935F936F937F938F939F932B
:10060000AF93BF93EF93FF93E0917000F09171006F
:100610000995FF91EF91BF91AF919F918F917F913C
:100620006F915F914F913F912F910F900FBE0F905F
:100630001F901895FC01DB0111968C911197811187
:100640000BC091818C9180958923818392818C91BB
:100650008095892382830895813051F491818C9112
:1006600080958923818392818C91892B828308953F
:1006700091818C91892B818311968C911197833074
:1006800029F492818C91892B8283089592818C9197
:100690008095892382830895FC01413021F4828171
:1006A000682B62830895928160956923628308951F
:0406B000F894FFCFEC
:0C06B40048656C6C6F2E2E2E2E2E21003F
:00000001FF
