:020000040800F2
:1000000000280020411500089115000891150008EE
:1000100091150008911500089115000800000000D6
:100020000000000000000000000000009115000822
:1000300091150008000000009115000891150008B6
:1000400091150008911500089115000891150008F8
:1000500091150008911500089115000891150008E8
:1000600091150008911500089115000891150008D8
:1000700091150008911500089115000891150008C8
:1000800091150008911500089115000891150008B8
:1000900091150008911500089115000891150008A8
:1000A0009115000891150008911500089115000898
:1000B0009115000891150008911500089115000888
:1000C0009115000891150008911500089115000878
:1000D00091150008BD1C0008C91C0008D51C0008AB
:1000E0009115000891150008000000009115000806
:1000F0009115000891150008911500089115000848
:100100009115000891150008911500089115000837
:100110009115000891150008911500089115000827
:100120009115000891150008911500089115000817
:1001300010B5054C237833B9044B13B10448AFF321
:1001400000800123237010BDC400002000000000C7
:100150006025000808B5034B1BB103490348AFF302
:10016000008008BD00000000C800002060250008D5
:1001700080B500AF00F03AF800F052F801F072FBE1
:1001800000F092F800F028FD00F0A0F800F0A6F8CA
:1001900000F0CCF800F018F900BF80BD80B500AFCA
:1001A0000F4B1B78DBB2002B04D00D4B00221A70D2
:1001B00000F024FA0B4B1B78DBB2002B04D0094B68
:1001C00000221A7000F050FB074B1B78DBB2002BAB
:1001D00004D0054B00221A7000F0F8FB00BF80BD70
:1001E000E0000020E1000020E200002080B400AF29
:1001F0000A4B9B69094A43F001039361074B9B69D2
:10020000064A43F004039361044B9B69034A43F09D
:100210000803936100BFBD4680BC704700100240D8
:1002200080B58AB000AF4FF4E133BB6100233B7768
:100230000023FB77202387F8203000237B77164BA1
:100240007B620023BB770C233B75144801F01CFC38
:1002500007F114031946114801F056FB4FF4E1333E
:100260007B6000233B720023FB7220233B7300233F
:100270007B720B4B3B610023BB720C233B70094824
:1002800001F002FC3B461946064801F03DFB00BF69
:100290002837BD4680BD00BF310B00080038014043
:1002A000850B00080044004080B500AF054800F011
:1002B00095FE054800F092FE322001F00DFB00BFD4
:1002C00080BD00BF000000201C00002080B500AFF2
:1002D00001F068F801F0AEF800BF80BD80B582B0D3
:1002E00000AF0423BB710123FB710123BB803B1DC5
:1002F00019460D4801F0B0F9012201210A4801F028
:100300003EFA4FF40063BB803B1D1946064801F0DE
:10031000A3F901224FF40061034801F030FA00BF55
:100320000837BD4680BD00BF0008014080B582B0DF
:1003300000AF0123BB718023BB803B1D19460748DA
:1003400001F08AF90223BB803B1D1946034801F0E6
:1003500083F900BF0837BD4680BD00BF00080140DB
:1003600080B582B000AF0023FB71154800F0F5FFA7
:10037000322001F0B1FA1349114800F096FF002233
:1003800002210F4800F0C2FF322001F0A5FA0FE071
:1003900000F018F90346303BFB71FB79002B07D0C6
:1003A000FB791946064800F0E5FF642001F094FA55
:1003B000FB79002BECD0FB7918460837BD4680BD91
:1003C000000000207825000890B583B000AF00231E
:1003D000FB71704800F0C1FF322001F07DFA6E49D8
:1003E0006C4800F062FF002202216A4800F08EFF94
:1003F000322001F071FA0FE000F0E4F80346303BE0
:10040000FB71FB79002B07D0FB791946614800F09E
:10041000B1FF642001F060FAFB79002BECD0FB798E
:10042000072B40F081805B4800F097FF322001F0FD
:1004300053FA5A49574800F038FF4FF4FA7001F068
:100440004BFA0023BB7131E0524800F086FF3220A6
:1004500001F042FA52494F4800F027FFBB790133BF
:1004600019464C4800F086FF642001F035FABC794B
:10047000FFF776FF03461A464A4B1A55454800F0E7
:100480006CFF322001F028FA4749424800F00DFF86
:10049000BB79444AD35C19463E4800F06BFF4FF4E9
:1004A000FA7001F019FABB790133BB71BB79022BE9
:1004B000CAD9384800F051FF322001F00DFA3B490B
:1004C000344800F0F2FE4FF4FA7001F005FA002211
:1004D0000221304800F01AFF324B1B7819462D4894
:1004E00000F048FF20212B4800F04BFE322001F0A5
:1004F000F3F92C4B5B781946264800F03BFF20218E
:10050000244800F03EFE322001F0E6F9254B9B78AE
:100510001946204800F02EFF4FF4FA7001F0DCF984
:10052000234B01221A702AE01A4800F016FF3220ED
:1005300001F0D2F91F49174800F0B7FE002202214E
:10054000144800F0E3FE1C49124800F0AEFE4FF4E0
:10055000FA6001F0C1F90F4800F0FFFE17490D489D
:1005600000F0A3FE002202210A4800F0CFFE144949
:10057000084800F09AFE40F6B83001F0ADF90548A1
:1005800000F0EBFE322001F0A7F900BF0C37BD46AA
:1005900090BD00BF000000208825000898250008B5
:1005A000A4250008F4000020B0250008BC250008A0
:1005B000E0000020C8250008D8250008E425000830
:1005C000F025000880B582B000AF0023FB7106E083
:1005D00000F052FB0346FB710A2001F07DF9FB7924
:1005E000002BF5D0FB794E2BF2D00A2001F074F9E4
:1005F000FB7918460837BD4680BD000080B500AFC6
:100600002A4800F0AAFE322001F066F9284927485E
:1006100000F04BFE00220221244800F077FE25491D
:10062000224800F042FE4FF4FA7001F055F91F48DD
:1006300000F093FE322001F04FF91F4B1B78002B86
:1006400020D01E49194800F030FE00F041F84FF468
:10065000FA7001F041F9154800F07FFE322001F0F8
:100660003BF91749114800F020FE002202210F48F3
:1006700000F04CFE13490D4800F017FE642001F015
:100680002BF910E01049094800F00FFE002202216A
:10069000064800F03BFE0D49044800F006FE4FF40A
:1006A000FA7001F019F900BF80BD00BF1C000020E6
:1006B000002600080C260008380000201C26000830
:1006C0002C2600083826000848260008582600086E
:1006D00080B500AF054B1B781946054800F04AFE6F
:1006E000322001F0F9F800BF80BD00BF38000020C3
:1006F0001C00002080B483B000AF0346FB710C4B9C
:100700001B78FA799A4209D0094B5B78FA799A42B8
:1007100004D0074B9B78FA799A4201D1012300E07B
:100720000023DBB218460C37BD4680BC704700BFC3
:10073000F400002080B584B000AF78600B467B8069
:1007400013467B700023FB7314E07B88002219465C
:10075000786801F014F8962001F0BEF87B88012239
:100760001946786801F00BF8642001F0B5F8FB7BBE
:100770000133FB73FA7B7B789A42E6D300BF1037D4
:10078000BD4680BD80B582B000AF03460A46FB710E
:100790001346BB71154800F0E0FD322001F09CF8D3
:1007A0001349124800F081FDFB7919460F4800F00B
:1007B000E1FD002202210D4800F0A8FDBB79002BCD
:1007C00001D00C4B00E00C4B1946084800F06DFDC1
:1007D000FA2001F081F802224FF400610748FFF788
:1007E000A9FF00BF0837BD4680BD00BF1C00002028
:1007F00068260008782600088C26000800080140BA
:1008000080B582B000AF0346FB71134800F0A5FD30
:10081000322001F061F811490F4800F046FDFB79E4
:1008200019460D4800F0A6FD002202210A4800F0FA
:100830006DFD0B49084800F038FDFA2001F04CF836
:10084000022201210748FFF775FFC82001F044F894
:1008500000BF0837BD4680BD1C0000209C26000854
:10086000A82600080008014080B582B000AF4C4BBC
:100870001B78FB714B4B1B78002B19D14A4800F0B9
:100880006CFD322001F028F84849474800F00DFD82
:1008900000220221444800F039FD4549424800F059
:1008A00004FD4FF4967001F017F8FFF7A7FE73E010
:1008B0008021404800F04FFF0346012B19D13A48F0
:1008C00000F04BFD322001F007F83B49364800F0BC
:1008D000ECFC00220221344800F018FD3749324870
:1008E00000F0E3FC4FF47A7000F0F6FFFFF786FEAD
:1008F00052E0FB791846FFF7FDFE0346002B06D1B8
:10090000FB791846FFF77CFFFFF778FE44E0254BA4
:100910001B78013BDAB2234B1A70FB790121184690
:10092000FFF730FF204800F018FD322000F0D4FF20
:1009300023491D4800F0B9FC1E2000F0CDFF012026
:1009400000F046FD00220221174800F0DFFC1D499F
:10095000154800F0AAFC00BF8021164800F0FBFEFD
:100960000346012BF8D0322000F0B6FF0E4800F00D
:10097000F4FC322000F0B0FF13490B4800F095FC66
:100980001E2000F0A9FF022000F022FD4FF4487065
:1009900000F0A2FFFFF732FE0837BD4680BD00BF62
:1009A000E3000020380000201C000020582600082A
:1009B0004826000800080140B8260008C82600089C
:1009C000D8260008E8260008F826000880B582B07E
:1009D00000AF4C4B1B78FB714B4B1B78032B19D191
:1009E0004A4800F0BAFC322000F076FF48494748F8
:1009F00000F05BFC00220221444800F087FC4549DE
:100A0000424800F052FC4FF4FA7000F065FFFFF727
:100A1000F5FD73E00221404800F09DFE0346012BE6
:100A200019D13A4800F099FC322000F055FF3B49BB
:100A3000364800F03AFC00220221344800F066FCFF
:100A40003749324800F031FC4FF4FA7000F044FFAF
:100A5000FFF7D4FD52E0FB791846FFF74BFE034643
:100A6000002B06D1FB791846FFF7CAFEFFF7C6FD3B
:100A700044E0254B1B780133DAB2234B1A70FB7923
:100A800000211846FFF77EFE204800F066FC322069
:100A900000F022FF23491D4800F007FC1E2000F053
:100AA0001BFF012000F0DCFC00220221174800F0AF
:100AB0002DFC1D49154800F0F8FB00BF0221164827
:100AC00000F049FE0346012BF8D0322000F004FF6D
:100AD0000E4800F042FC322000F0FEFE13490B48A5
:100AE00000F0E3FB1E2000F0F7FE022000F0B8FC4F
:100AF0004FF4FA7000F0F0FEFFF780FD0837BD46B6
:100B000080BD00BFE3000020380000201C00002052
:100B1000082700081C270008000801402C270008AF
:100B200040270008D826000850270008F8260008AB
:100B300080B582B000AFBB1D002219460E4801F0FF
:100B40008FF8FB88303B9BB2FB80FB88DBB23033F5
:100B5000DBB27B717B1D01221946074801F064F866
:100B6000FB88DAB2054B1A70054B01221A7000BFE0
:100B70000837BD4680BD00BF00380140E3000020BB
:100B8000E100002080B582B000AFBB1D00221946F5
:100B90000E4801F065F8FB88303B9BB2FB80FB8878
:100BA000DBB23033DBB27B717B1D01221946074873
:100BB00001F03AF8FB88DAB2054B1A70054B0122B6
:100BC0001A7000BF0837BD4680BD00BF004400401A
:100BD000E3000020E200002080B582B000AF0323D4
:100BE000BB711023BB803B1D1946224800F034FD29
:100BF0000823BB803B1D19461E4800F02DFD022333
:100C0000BB803B1D19461B4800F026FD0123BB801D
:100C10003B1D1946174800F01FFD0423BB7101233B
:100C2000FB712023BB803B1D1946124800F014FDC8
:100C30004023BB803B1D19460E4800F00DFD80236C
:100C4000BB803B1D19460B4800F006FD0022202109
:100C5000084800F094FD00224021064800F08FFD76
:100C600000228021034800F08AFD00BF0837BD46FE
:100C700080BD00BF000C014080B582B000AF0023F2
:100C8000FB715CE0FB79324A32F8133001221946DD
:100C9000304800F074FD0023BB7141E0BB792E4A5F
:100CA00032F8133019462B4800F055FD0346012B4E
:100CB00033D100233B6002E03B6801333B603B687B
:100CC000B3F57A7FF8D3BB79234A32F8133019464B
:100CD000204800F040FD0346012B1ED1FB791C4A41
:100CE00032F81330002219461A4800F048FD00BFC0
:100CF000BB79194A32F813301946164800F02BFD1B
:100D00000346012BF4D0BA79F979144813465B00F5
:100D1000134403440B441B7815E0BB790133BB71CA
:100D2000BB79032BBAD9FB79094A32F81330002278
:100D30001946084800F023FDFB790133FB71FB796C
:100D4000022B9FD94E2318460837BD4680BD00BFF1
:100D50003C000020000C0140440000204C0000201A
:100D600080B485B000AF78600023FB600BE0002307
:100D7000BB6002E0BB680133BB60BB68FE2BF9D9E6
:100D8000FB680133FB60FA687B689A42EFD300BFCF
:100D90001437BD4680BC704780B582B000AF786024
:100DA0007B6818687B681B890122194600F0E7FC04
:100DB0000120FFF7D5FF7B6818687B681B8900223C
:100DC000194600F0DCFC0120FFF7CAFF00BF08371E
:100DD000BD4680BD80B582B000AF78600B46FB7029
:100DE0007B6818687B689989FB7803F00103DBB2A4
:100DF0001A4600F0C4FC7B6818687B68D989FB78C8
:100E00005B08DBB203F00103DBB21A4600F0B7FC6B
:100E10007B6818687B68198AFB789B08DBB203F053
:100E20000103DBB21A4600F0AAFC7B6818687B68F5
:100E3000598AFB78DB08DBB203F00103DBB21A4608
:100E400000F09DFC7868FFF7A7FF00BF0837BD469C
:100E500080BD000080B582B000AF78605E4B042298
:100E60009A705D4B0122DA707B689A885A4B1A801F
:100E70007B681B685849184600F0EEFB7B68DA88EF
:100E8000554B1A807B681B685349184600F0E4FBF9
:100E90007B681A89504B1A807B681B684E4918463C
:100EA00000F0DAFB7B689B7A012B50D17B689A8932
:100EB000494B1A807B681B684749184600F0CCFBF9
:100EC0007B68DA89444B1A807B681B684249184664
:100ED00000F0C2FB7B681A8A3F4B1A807B681B6854
:100EE0003D49184600F0B8FB7B685A8A3A4B1A8095
:100EF0007B681B683849184600F0AEFB7B689A8A0D
:100F0000354B1A807B681B683349184600F0A4FBF8
:100F10007B68DA8A304B1A807B681B682E4918463A
:100F200000F09AFB7B681A8B2B4B1A807B681B683E
:100F30002949184600F090FB7B685A8B264B1A8093
:100F40007B681B682449184600F086FB27E07B6815
:100F50009A89214B1A807B681B681F49184600F04C
:100F60007BFB7B68DA891C4B1A807B681B681A49FB
:100F7000184600F071FB7B681A8A174B1A807B6851
:100F80001B681549184600F067FB7B685A8A124BAC
:100F90001A807B681B681049184600F05DFB7B686F
:100FA00018687B689B880022194600F0E8FB7B6884
:100FB00018687B68DB880022194600F0E0FB7B683C
:100FC00018687B681B890022194600F0D8FB00BF17
:100FD0000837BD4680BD00BFF800002080B582B054
:100FE00000AF78601420FFF7BBFE7868FFF732FF90
:100FF0007B689B7A012B04D13821786800F02DF8AA
:101000001CE003217868FFF7E5FE0520FFF7A8FE46
:1010100003217868FFF7DEFE0120FFF7A1FE032120
:101020007868FFF7D7FE0120FFF79AFE0221786863
:10103000FFF7D0FE2821786800F00FF806217868C5
:1010400000F00BF80F21786800F007F8786800F0DE
:1010500084F900BF0837BD4680BD80B582B000AFBF
:1010600078600B46FB707B6818687B689B88002261
:10107000194600F084FB7B6818687B68DB880022D7
:10108000194600F07CFB7B689B7A012B66D17B685C
:1010900018687B689989FB7803F00103DBB21A4674
:1010A00000F06DFB7B6818687B68D989FB785B086A
:1010B000DBB203F00103DBB21A4600F060FB7B6891
:1010C00018687B68198AFB789B08DBB203F0010380
:1010D000DBB21A4600F053FB7B6818687B68598ABC
:1010E000FB78DB08DBB203F00103DBB21A4600F049
:1010F00046FB7B6818687B68998AFB781B09DBB222
:1011000003F00103DBB21A4600F039FB7B68186874
:101110007B68D98AFB785B09DBB203F00103DBB2A1
:101120001A4600F02CFB7B6818687B68198BFB78EB
:101130009B09DBB203F00103DBB21A4600F01FFB90
:101140007B6818687B68598BFB78DB09DBB21A4631
:1011500000F015FB7868FFF71FFE0EE0FB781B0917
:10116000DBB219467868FFF735FEFB7803F00F0312
:10117000DBB219467868FFF72DFE00BF0837BD4681
:1011800080BD80B582B000AF78600B46FB707B6895
:1011900018687B689B880122194600F0F0FA7B688A
:1011A00018687B68DB880022194600F0E8FA7B6843
:1011B0009B7A012B66D17B6818687B689989FB78DC
:1011C00003F00103DBB21A4600F0D9FA7B68186815
:1011D0007B68D989FB785B08DBB203F00103DBB2E3
:1011E0001A4600F0CCFA7B6818687B68198AFB788D
:1011F0009B08DBB203F00103DBB21A4600F0BFFA32
:101200007B6818687B68598AFB78DB08DBB203F0DF
:101210000103DBB21A4600F0B2FA7B6818687B68FB
:10122000998AFB781B09DBB203F00103DBB21A4693
:1012300000F0A5FA7B6818687B68D98AFB785B099F
:10124000DBB203F00103DBB21A4600F098FA7B68C8
:1012500018687B68198BFB789B09DBB203F00103EC
:10126000DBB21A4600F08BFA7B6818687B68598BF2
:10127000FB78DB09DBB21A4600F081FA7868FFF7E9
:101280008BFD0EE0FB781B09DBB219467868FFF78F
:10129000A1FDFB7803F00F03DBB219467868FFF776
:1012A00099FD00BF0837BD4680BD80B584B000AF52
:1012B000786039600023FB6020E0FB680133FB604D
:1012C0003B685A1C3A601B7819467868FFF759FF4B
:1012D000FB68102B05D100220221786800F016F877
:1012E0000CE0FB68202B09D1786800F036F800226A
:1012F0000121786800F00AF80023FB603B681B7846
:10130000002BDAD100BF1037BD4680BD80B582B05A
:1013100000AF78600B46FB701346BB70FB78012B67
:101320000AD1BB780F2B07D8BB78803BDBB21946BC
:101330007868FFF792FE0CE0FB78022B09D1BB78AE
:101340000F2B06D8BB78403BDBB219467868FFF715
:1013500084FE00BF0837BD4680BD80B582B000AFB7
:10136000786001217868FFF778FE00BF0837BD4636
:1013700080BD000080B586B000AF7860396007F1AD
:101380000C033A680649184600F0D8FC07F10C0334
:1013900019467868FFF789FF00BF1837BD4680BD42
:1013A0005C27000880B582B000AF4FF48073BB802B
:1013B0000423BB710123FB713B1D1946034800F058
:1013C0004BF900BF0837BD4680BD00BF000C01408F
:1013D00080B582B000AF0346FB71FB79012B0FD1C2
:1013E00001224FF48071124800F0C9F94FF4FA70ED
:1013F00000F05EFA00224FF480710D4800F0BFF952
:10140000FB79022B0FD101224FF48071084800F0C4
:10141000B6F94FF4BA6000F04BFA00224FF4807135
:10142000034800F0ACF900BF0837BD4680BD00BFDF
:10143000000C014080B582B000AF4FF40073BB8058
:101440000423BB710123FB713B1D1946034800F0C7
:1014500003F900BF0837BD4680BD00BF000C014046
:1014600080B584B000AF0346FB71FB79012B0FD12F
:1014700001224FF40071124800F081F94FF4FA7024
:1014800000F016FA00224FF400710D4800F077F9D1
:10149000FB79022B0FD101224FF40071084800F0B4
:1014A0006EF94FF4BA6000F003FA00224FF40071B5
:1014B000034800F064F900BF1037BD4680BD00BF8F
:1014C000000C014080B500AFFEF752FEFEF766FE4D
:1014D000FCE7000080B586B000AF7860144A154B79
:1014E000D31A7B617B693B61134B1B68002B02D1D4
:1014F000114B124A1A60104B1A687B6813443A6900
:101500009A4207D200F0F0FB02460C2313604FF022
:10151000FF3309E0084B1B68FB60074B1A687B68C8
:101520001344054A1360FB6818461837BD4680BD52
:101530000028002000040000E4000020000100203A
:101540000D488546AFF300800C480D490D4A002335
:1015500002E0D458C4500433C4188C42F9D30A4A68
:101560000A4C002301E013600432A242FBD300F0D6
:10157000C1FBFFF7A7FFFEE70028002000000020C6
:10158000C4000020A8270008C4000020000100209B
:10159000FEE780B483B000AF0346FB80FB88802B5E
:1015A00042D0802B11DC082B36D0082B06DC022B16
:1015B0002ED0042B2ED0012B28D047E0202B2FD06B
:1015C000402B2FD0102B29D040E0B3F5006F33D043
:1015D000B3F5006F09DCB3F5007F29D0B3F5806F58
:1015E00028D0B3F5807F21D030E0B3F5005F27D05D
:1015F000B3F5005F03DCB3F5805F1FD026E0B3F5E1
:10160000804F1FD0B3F5004F1ED01FE000231EE017
:1016100004231CE008231AE00C2318E0102316E032
:10162000142314E0182312E01C2310E000230EE022
:1016300004230CE008230AE00C2308E0102306E052
:10164000142304E0182302E01C2300E000231846C2
:101650000C37BD4680BC704790B585B000AF786050
:1016600039600023BB600023FB733B681B88FF2BA2
:1016700001D87B6801E07B680433BB603B681B8852
:101680001846FFF786FF03461A460F239340DA43B6
:10169000BB681B681A40BB681A603B689B78042BC8
:1016A0000BD03B689B78052B07D03B689B78062BBB
:1016B00003D03B689B78072B0ED13B689B78043B9B
:1016C0009B005AB23B68DB785BB213435BB2DBB280
:1016D00003F00F03FB732CE03B689B78002B03D0D7
:1016E0003B689B78012B07D13B689B789B00DBB262
:1016F00003F00F03FB731CE03B689B78082B02D1BF
:101700000423FB7315E00823FB733B689B78022BD3
:1017100007D17B68DB683A6812881A437B68DA6015
:1017200007E07B68DB683A681288D2431A407B681E
:10173000DA60FC7B3B681B881846FFF72AFF0346EC
:1017400004FA03F2BB681B681A43BB681A6000BF47
:101750001437BD4690BD80B483B000AF78600B46AF
:101760007B807B689A687B881340002B14BF012321
:101770000023DBB218460C37BD4680BC704780B4EE
:1017800083B000AF78600B467B8013467B707B781C
:10179000012B03D17A887B681A6102E07A887B6822
:1017A0005A6100BF0C37BD4680BC704780B400AFA3
:1017B0000B4B5B689B0803F00F03012B06D0012B3A
:1017C00002D3022B04D005E0064B04E0064B02E0F6
:1017D000054B00E0034B1846BD4680BC704700BF78
:1017E0000010024000127A000024F40080B500AF1F
:1017F000FFF7DCFF0146054B5B681B0903F00F0395
:10180000034AD35C21FA03F3184680BD001002405E
:101810005800002080B500AFFFF7E8FF0146054BF8
:101820005B681B0A03F00703034AD35C21FA03F346
:10183000184680BD001002405800002080B500AF5F
:10184000FFF7D4FF0146054B5B68DB0A03F0070393
:10185000034AD35C21FA03F3184680BD001002400E
:101860005800002080B400AF104BDB690F4A43F0F2
:101870000103D3614FF0804307229A624FF0804307
:101880004CF25032DA624FF080431B684FF08042D6
:1018900043F00103136000BF4FF080431B69002B2E
:1018A000FAD000BFBD4680BC704700BF00100240A8
:1018B00080B483B000AF78604FF0804300225A625A
:1018C00000BF4FF080435A6A7B689A42F9D300BF49
:1018D0000C37BD4680BC704780B584B000AF7860DF
:1018E0000023FB600023FB6006E04FF47A70FFF7F3
:1018F000DFFFFB680133FB60FA687B689A42F4DB28
:1019000000BF1037BD4680BD80B584B000AF7860A1
:101910003960574A3B6813607B68564A934206D148
:10192000554B9B69544A43F48043936114E07B68B0
:10193000524A934206D1504BDB694F4A43F400337D
:10194000D36109E07B684D4A934205D14A4BDB697C
:10195000494A43F48023D3617B68DB6843F4005237
:101960007B68DA607B68DB683A6812781A437B68C8
:10197000DA607B68DB683A68127A1A437B68DA605F
:101980007B68DB683A68527A1A437B68DA607B6866
:101990001B693A68927A1A437B681A617B685B69B3
:1019A0003A68D27A1A437B685A617B68314A93421B
:1019B00004D1FFF743FF0346FB6003E0FFF72AFF74
:1019C0000346FB603B685B681B01FA68B2FBF3F3FC
:1019D0001A01FB68642101FB03F13B685B681B0192
:1019E000B1FBF3F13B685B681B01F868B0FBF3F3F4
:1019F000642000FB03F3CB1A1B012149A1FB031355
:101A00005B0903F00F031343BB607B68BA689A60FD
:101A10003B681B7B002B26D07B68DB683A68127B17
:101A20001A437B68DA607B68124A934206D1154BF1
:101A30001B68144A43F02003136014E07B680F4ACC
:101A4000934206D10F4B1B680E4A43F040031360CC
:101A500009E07B68094A934205D10A4B1B68094A91
:101A600043F08003136000BF1037BD4680BD00BF48
:101A7000E80000200038014000100240004400400F
:101A80001F85EB5104E100E080B584B000AF7860C1
:101A9000604B1B68DB7AFB737B685F4A93423BD1E8
:101AA0004FF400733B810623BB720123FB7207F1E5
:101AB000080319465948FFF7CFFD4FF480633B8177
:101AC0000123BB7207F1080319465448FFF7C4FD10
:101AD000FB7B03F40073002B0AD04FF400633B81BF
:101AE0000123BB7207F1080319464C48FFF7B4FD08
:101AF000FB7B03F48073002B00F087804FF480534E
:101B00003B810623BB720123FB7207F108031946D0
:101B10004248FFF7A1FD78E07B68414A934236D105
:101B200004233B810623BB720123FB7207F10803E8
:101B300019463A48FFF790FD08233B810123BB7209
:101B400007F1080319463548FFF786FDFB7B03F4D0
:101B50000073002B09D001233B810123BB7207F1E5
:101B6000080319462D48FFF777FDFB7B03F48073CC
:101B7000002B4AD002233B810623BB720123FB7258
:101B800007F1080319462548FFF766FD3DE07B682D
:101B9000234A934239D14FF480633B810623BB72C1
:101BA0000123FB7207F1080319461E48FFF754FD95
:101BB0004FF400633B810123BB7207F10803194610
:101BC0001848FFF749FDFB7B03F40073002B0AD094
:101BD0004FF400533B810123BB7207F10803194600
:101BE0001048FFF739FDFB7B03F48073002B0CD00A
:101BF0004FF480433B810623BB720123FB7207F144
:101C0000080319460548FFF727FD00BF1037BD46FA
:101C100080BD00BFE80000200038014000080140FE
:101C200000440040000C014080B485B000AFF86073
:101C3000B9601346FB71FB79012B06D100BFFB682D
:101C40001B6803F08003002BF9D0BB681B88DAB255
:101C5000FB685A6000BF1437BD4680BC7047000067
:101C600080B485B000AFF860B9601346FB71FB79B2
:101C7000012B06D100BFFB681B6803F02003002B7B
:101C8000F9D00D4B1B685B7A002B07D1FB685B68B2
:101C90009BB2DBB29AB2BB681A8007E0FB685B6854
:101CA0009BB203F07F039AB2BB681A8000BF14375F
:101CB000BD4680BC704700BFE800002080B500AF83
:101CC000FEF736FF00BF80BD80B500AFFEF75AFFBC
:101CD00000BF80BD80B500AF024B1B681B699847F1
:101CE00000BF80BDE8000020014B1868704700BFAE
:101CF0006000002070B500250C4E0D4CA41BA410F4
:101D0000A54209D100F02CFC00250A4E0A4CA41B68
:101D1000A410A54205D170BD56F82530984701356D
:101D2000EEE756F8253098470135F2E7A02700087E
:101D3000A0270008A0270008A42700080EB46FF011
:101D4000004100B59CB01DAB029006900791049134
:101D50000848094953F8042B0591006802A901932A
:101D600000F066F80022029B1A701CB05DF804EBCC
:101D700003B07047600000200802FFFF2DE9F04724
:101D80008E6882469E420C469046994637D88A898C
:101D900012F4906F31D00223256809696F1A6569C2
:101DA00005EB450595FBF3F509F101033B449D4225
:101DB00038BF1D46530530D5294600F037FB06468F
:101DC00050B90C234FF0FF30CAF80030A38943F01C
:101DD0004003A381BDE8F0873A46216900F0B6FAD6
:101DE000A38923F4906343F08003A38126613E44DA
:101DF00026604E466561ED1BA5604E4500D94E46F6
:101E000032464146206800F0ACFAA36800209B1BD4
:101E1000A36023681E442660DCE72A4600F060FBCE
:101E200006460028E2D12169504600F0B3FAC8E71F
:101E30002DE9F04F1D468B899DB01F0680460C464C
:101E400016460FD50B696BB9402100F0EFFA206000
:101E5000206128B90C23C8F800304FF0FF30C8E0EB
:101E6000402363610023099320238DF82930302318
:101E70004FF0010B8DF82A30039537463D4615F893
:101E8000013B0BB1252B3ED1B7EB060A0BD05346D5
:101E9000324621464046FFF771FF013000F0A48032
:101EA000099B534409933B78002B00F09D8000234D
:101EB0004FF0FF32CDE90523049307938DF853309B
:101EC0001A932F46052217F8011B504800F030FAEC
:101ED000049BD0B9D90644BF20228DF853201A079D
:101EE00044BF2B228DF853202A782A2A15D02F465A
:101EF00000200A25079A394611F8013B303B092B8F
:101F00004DD9B8B10FE02F46B8E7404A3D46801A98
:101F10000BFA00F018430490D3E7039A111D1268DE
:101F20000391002A01DB079204E0524243F00203CE
:101F3000079204933B782E2B0CD17B782A2B33D13C
:101F4000039B02371A1D1B680392002BB8BF4FF08A
:101F5000FF3305932E4D03223978284600F0E8F927
:101F600038B14023401B03FA00F0049B01370343C0
:101F700004933978062227487E1C8DF8281000F03B
:101F8000D7F9002838D0244B13BB039B073323F029
:101F9000070308330393099B4B4409936DE705FB43
:101FA000023201200F46A6E700230A251946013711
:101FB0000593384610F8012B303A092A03D9002B33
:101FC000C8D00591C6E705FB012101230746F0E7CC
:101FD00003AB00932246114B04A94046AFF30080A7
:101FE000B0F1FF3F8146D6D1A3895B063FF535AFFF
:101FF00009981DB0BDE8F08F03AB00932246074B54
:1020000004A9404600F082F8EAE700BF6A2700080A
:102010007027000874270008000000007D1D0008DC
:102020002DE9F04791461F468A680B6906469342A0
:10203000B8BF1346C9F8003091F843200C46DDF8CC
:10204000208012B10133C9F800302368990642BFDD
:10205000D9F800300233C9F80030256815F00605BC
:1020600007D104F1190AE368D9F800209B1AAB42A2
:1020700029DC94F843302268003318BF012392060C
:102080002ED404F1430239463046C047013021D0F6
:102090002368E56803F00603042B18BF0025D9F870
:1020A00000204FF0000908BFAD1AA368226908BFDD
:1020B00025EAE5759342C4BF9B1AED181A344D45C5
:1020C0001AD1002008E00123524639463046C04765
:1020D000013003D14FF0FF30BDE8F0870135C2E792
:1020E0003020E11881F843005A1C94F8451022442E
:1020F000023382F84310C4E70123224639463046B2
:10210000C0470130E6D009F10109D8E72DE9F043D5
:1021100001F1430C0C46097E85B06E291746064630
:1021200098460C9A00F0B38022D8632936D00AD89A
:10213000002900F0B980582900F0838004F142059D
:1021400084F8421032E0642901D06929F6D1206870
:102150001368050603F104012AD51B681160002BE2
:1021600003DA2D225B4284F843206F480A2239E0CB
:10217000732900F09D8008D86F2920D07029DDD107
:10218000236843F02003236003E0752917D07829E2
:10219000D4D17823654884F8453055E0136804F1BC
:1021A0004205191D1B68116084F8423001238CE040
:1021B0001B6810F0400F116018BF1BB2CFE7136807
:1021C0002568181D1060280601D51B6802E0680606
:1021D000FBD51B886F2914BF0A2208225248002110
:1021E00084F843106568002DA560C0F295802168D1
:1021F00021F004012160002B3DD1002D40F08E80A4
:102200006546082A0BD12368DB0708D52369626875
:102210009A42DEBF302305F8013C05F1FF35ACEBF7
:1022200005032361CDF800803B4603AA21463046D2
:10223000FFF7F6FE01304DD14FF0FF3005B0BDE89D
:10224000F083394884F84510136821681D1D1B6808
:1022500015600A060BD5CA0744BF41F02001216072
:102260001BB9226822F0200222601022B7E74D0637
:1022700048BF9BB2EFE76546B3FBF2F102FB1133B7
:10228000C35C05F8013D0B460029F5D1B9E7136899
:102290002568181D6169106028061B6801D5196042
:1022A00002E06A06FBD51980002365462361B9E781
:1022B0001368191D11601D6862680021284600F02E
:1022C00037F808B1401B606063682361002384F81D
:1022D0004330A7E723692A4639463046C0470130D4
:1022E000AAD023689B0713D4E068039B9842B8BF29
:1022F0001846A3E701234A4639463046C047013015
:102300009AD00135E368039A9B1AAB42F2DCEBE703
:10231000002504F11909F5E7002BACD1037804F18D
:10232000420584F842306CE77B2700088C270008C0
:1023300010B5C9B202449042034601D1002303E024
:102340001C7801308C42F6D1184610BD10B5431EE2
:102350000A44914200D110BD11F8014B03F8014F1E
:10236000F7E7884210B501EB020307D8421E9942F5
:102370000AD011F8014B02F8014FF8E78342F5D972
:102380008118D21AD34200D110BD13F8014D01F8C3
:10239000014DF7E738B50546002943D051F8043C14
:1023A0000C1F002BB8BFE41800F0D0F81E4A1368C9
:1023B000104633B9636014602846BDE8384000F029
:1023C000C6B8A3420BD921686218934201BF1A68AC
:1023D0005B685218226063600460EDE713465A6838
:1023E0000AB1A242FAD919685818A0420BD1206844
:1023F0000144581882421960DED1106852680144C5
:1024000019605A60D8E702D90C232B60D4E7206802
:1024100021188A4201BF1168526809182160626060
:102420005C60C9E738BD00BFEC00002070B5CD1C72
:1024300025F0030508350C2D38BF0C25002D064668
:1024400001DBA94203D90C233360002070BD00F0EA
:102450007DF8214A1468214691B9204C23681BB9A4
:10246000304600F063F820602946304600F05EF800
:10247000431C24D10C233046336000F068F8E4E7B5
:102480000B685B1B18D40B2B0FD90B60CC18CD50ED
:10249000304600F05CF804F10B00231D20F007002B
:1024A000C31AD3D05A42E250D0E74B688C4216BFD1
:1024B000636013600C46EBE70C464968CCE7C41C2C
:1024C00024F00304A04205D0211A304600F02EF873
:1024D0000130CFD02560DBE7EC000020F0000020C9
:1024E000F8B5074614460E4621B9BDE8F840114636
:1024F000FFF79CBF22B9FFF74DFF25462846F8BDE0
:1025000000F026F8A0420FD221463846FFF78EFF92
:1025100005460028F2D031462246FFF717FF314624
:102520003846FFF737FFE9E73546E7E738B50023D8
:10253000054C054608462360FEF7CCFF431C02D13C
:10254000236803B12B6038BDFC0000207047704742
:1025500051F8043C181F002BBCBF0B58C018704723
:10256000F8B500BFF8BC08BC9E467047F8B500BF80
:08257000F8BC08BC9E46704750
:10257800456E746572204361722049440000000072
:10258800456E7465722041646D696E20494400008F
:1025980056616C6964204C6F67696E00456E74659E
:1025A8007220494420000000494420416464656465
:1025B8003A2000004944732053746F7265643A00EE
:1025C800496E76616C6964204C6F67696E00000023
:1025D80054727920416761696E000000596F752057
:1025E8004D7573740000000052657365742053794B
:1025F8007374656D2E2E2E0057656C636F6D6520A4
:10260800696E000042656C616C2773205061726BC3
:10261800696E6700456D70747920536C6F74733AF6
:102628002000000050757420596F757220494400CD
:10263800696E2043617264205265616465720000AE
:102648005061726B696E672046756C6C0000000003
:102658004E6F20456D70747920536C6F7473000051
:10266800436F72726563742049443A200000000089
:10267800456E7472792047617465204F70656E737A
:1026880000000000457869742047617465204F7028
:10269800656E730057726F6E672049443A200000D8
:1026A8004163636573732044656E69656400000067
:1026B800506C7A2057616974204761746500000086
:1026C8004973205374696C6C204F70656E2000004C
:1026D80047617465204F70656E696E672E2E2E00F7
:1026E800506C6561736520456E746572000000006A
:1026F8004761746520436C6F73696E672E2E2E00D8
:102708005061726B696E6720497320456D707479EA
:10271800000000004E6F204361727320496E736998
:1027280064650000506C65617365205761697420A9
:1027380020476174650000004973205374696C6C0C
:10274800204F70656E000000506C65617365204510
:1027580078697400256C7500256C752E2530316CF0
:102768006400232D302B2000686C4C00656667459B
:1027780046470030313233343536373839414243F1
:1027880044454600303132333435363738396162A2
:082798006364656600000000A7
:0427A00055010008D7
:0427A40031010008F7
:1027A800000C014000080400000400000010002094
:1027B8000040008000000000000000000008014008
:1027C80020001000400000000010002000400080A1
:1027D800000000000000000003000000200040008E
:1027E800800000001000080002000100313233347C
:1027F80035363738392A3023000000000102030437
:10280800640000200000000000000000000000003C
:1028180000000000000000000000000000000000B0
:1028280000000000000000000000000000000000A0
:102838000000000000000000000000000000000090
:102848000000000000000000000000000000000080
:102858000000000000000000000000000000000070
:04286800000000006C
:040000050800154199
:00000001FF
