S00F0000447269766572732E7372656336
S11300000C942A000C9428020C944F020C9476024F
S11300100C9447000C9447000C9447000C94470040
S11300200C9447000C9447000C9447000C94470030
S11300300C9447000C9447000C9447000C94470020
S11300400C9447000C9447000C9447000C94470010
S11300500C94470011241FBECFE5D8E0DEBFCDBF0E
S113006010E0A0E6B0E0E2EDF7E002C005900D92EA
S1130070AA38B107D9F720E0AAE8B0E001C01D9280
S1130080AF39B207E1F70E9423020C94E7030C9402
S11300900000CF93DF9300D000D0CDB7DEB71A8233
S11300A0198214C01C821B8206C02B813C812F5FE5
S11300B03F4F3C832B832B813C81283E3340A8F364
S11300C029813A812F5F3F4F3A83298329813A81DD
S11300D02817390738F30F900F900F900F90DF9186
S11300E0CF910895CF93DF93CDB7DEB72D970FB699
S11300F0F894DEBF0FBECDBF0E94840188E18983DE
S11301001A8280E895E2A0E0B0E08B839C83AD8303
S1130110BE8386E08F83188619861A861B861D8601
S11301201C86BE016F5F7F4F89E290E00E94DB0274
S113013080E690E00E94ED0184EF91E00E94490086
S11301408FE690E00E9491030E9480018AE790E08C
S11301500E94ED0184EF91E00E9449000E94800119
S11301602D960FB6F894DEBF0FBECDBFDF91CF91B1
S113017008958AE890E00E949E038AE890E00E9435
S1130180ED0108951F93CF93DF9300D0CDB7DEB771
S113019012E019831A83BE016F5F7F4F86E390E0FC
S11301A00E949D0284E089831A83BE016F5F7F4FA2
S11301B086E390E00E949D0288E089831A83BE0151
S11301C06F5F7F4F86E390E00E949D0280E1898308
S11301D01A83BE016F5F7F4F89E390E00E949D0206
S11301E080E289831A83BE016F5F7F4F89E390E0C9
S11301F00E949D0280E489831A83BE016F5F7F4F52
S113020089E390E00E949D0280E889831A83BE01FD
S11302106F5F7F4F89E390E00E949D0240E068E0B9
S113022086E390E00E94CF0240E062E086E390E043
S11302300E94CF0240E064E086E390E00E94CF0297
S11302400F900F90DF91CF911F91089540E068E0E7
S113025086E390E00E94CF0220E030E009C00196DE
S113026002C080E090E08F3F9105C8F32F5F3F4FBD
S113027022303105B0F341E068E086E390E00E946B
S1130280CF0220E030E009C0019602C080E090E097
S11302908F3F9105C8F32F5F3F4F22303105B0F3F4
S11302A00895CF93C82F8BB38F709C2F907F892B89
S11302B08BBB40E062E086E390E00E94CF0240E026
S11302C064E086E390E00E94CF020E9426012BB3F3
S11302D030E1C39FC0011124922F9F70892B8BBBE7
S11302E040E062E086E390E00E94CF0240E064E0F8
S11302F086E390E00E94CF020E942601CF910895E8
S113030081E00E945101089520E030E009C0019687
S113031002C080E090E08F3F9105C8F32F5F3F4F0C
S113032024313105B0F30E94C2000E94800182E0B2
S11303300E94510188E20E94510186E00E9451010D
S113034080E80E9451018FE00E9451010895CF93EB
S1130350C82F8BB38F709C2F907F892B8BBB41E070
S113036062E086E390E00E94CF0240E064E086E32E
S113037090E00E94CF020E9426012BB330E1C39F7C
S1130380C0011124922F9F70892B8BBB41E062E046
S113039086E390E00E94CF0240E064E086E390E0D0
S11303A00E94CF020E942601CF910895CF93DF933C
S11303B0C82FD62F813031F4603120F480E8860FC5
S11303C00E945101C23031F4D03120F480EC8D0F01
S11303D00E945101DF91CF910895CF92DF92EF9265
S11303E0FF92CF93DF93EC01C12CD12C760121C075
S11303F09FEFC91AD90AE90AF90A21960E94A701AE
S113040080E1C816D104E104F10421F460E082E043
S11304100E94D60190E2C916D104E104F10449F422
S11304200E94800160E081E00E94D601C12CD12CA1
S1130430760188818111DCCFDF91CF91FF90EF901D
S1130440DF90CF9008950E9472000E94B900FDCF02
S11304501F920F920FB60F9211242F933F934F9335
S11304605F936F937F938F939F93AF93BF93EF9318
S1130470FF93E0919500F09196000995FF91EF911B
S1130480BF91AF919F918F917F916F915F914F91A8
S11304903F912F910F900FBE0F901F9018951F92B0
S11304A00F920FB60F9211242F933F934F935F93A4
S11304B06F937F938F939F93AF93BF93EF93FF9328
S11304C0E0919700F09198000995FF91EF91BF9109
S11304D0AF919F918F917F916F915F914F913F91D8
S11304E02F910F900FBE0F901F9018951F920F928F
S11304F00FB60F9211242F933F934F935F936F93F3
S11305007F938F939F93AF93BF93EF93FF93E09168
S11305109900F0919A000995FF91EF91BF91AF91E5
S11305209F918F917F916F915F914F913F912F9107
S11305300F900FBE0F901F901895FC01DB011196D0
S11305408C91119781110BC091818C918095892395
S1130550818392818C91809589238283089581304F
S113056051F491818C9180958923818392818C911E
S1130570892B8283089591818C91892B8183119693
S11305808C911197833029F492818C91892B8283E9
S1130590089592818C918095892382830895FC012A
S11305A0413021F48281682B6283089592816095A1
S11305B06923628308950F931F93CF93DF938C0174
S11305C0EB0170939C0060939B0089818068F80123
S11305D0878B8981811141C08985828389858111B5
S11305E020C08A819B81AC81BD81880F991FAA1F7D
S11305F0BB1F880F991FAA1FBB1F9C01AD01220FAF
S1130600331F441F551F220F331F441F551F60E023
S113061072E18AE790E00E94C5032150F80120832B
S11306202FC08A819B81AC81BD81880F991FAA1F2D
S1130630BB1F880F991FAA1FBB1F9C01AD01220F6E
S1130640331F441F551F60E072E18AE790E00E9467
S1130650C5032150F801208313C08A819B81AC819A
S1130660BD819C01AD01220F331F441F551F60E063
S113067072E18AE790E00E94C5032150F8012083CB
S113068029818F819885822B892B8068F801878B3B
S11306908E81882389F0823021F487898260878B58
S11306A00BC0843029F4F80187898460878B04C0E7
S11306B0F80187898660878B8881803129F4F80165
S11306C08181806181830BC0883029F4F8018181A4
S11306D08860818304C0F8018181886181838A856F
S11306E0882391F0803829F4F8018181806881831E
S11306F00BC0803429F4F80181818064818304C0B3
S1130700F8018181806C8183DF91CF911F910F91DA
S113071008955D9BFECF8CB908955F9BFECF8CB18D
S11307200895CF93DF93EC0103C021960E948903BF
S113073088818111FACFDF91CF9108950F931F9390
S1130740CF938C01C0E00E948D038D3019F4F80121
S1130750108217C0F801808390E00E94A701CF3077
S113076039F460E070E082E090E00E94D60105C0B8
S1130770CF3119F40E948001C0E00F5F1F4FCF5F9B
S1130780E2CFCF911F910F910895A1E21A2EAA1BD7
S1130790BB1BFD010DC0AA1FBB1FEE1FFF1FA2172D
S11307A0B307E407F50720F0A21BB30BE40BF50B2A
S11307B0661F771F881F991F1A9469F760957095B3
S11307C0809590959B01AC01BD01CF010895F894EB
S10507D0FFCF55
S11307D25553415254205458204D6F64653A005782
S11307E2656C636F6D652E2E2E0055534152542055
S10D07F25258204D6F64653A000070
S9030000FC
