:020000040800F2
:10000000002800203105000881050008810500084E
:100010008105000881050008810500080000000036
:100020000000000000000000000000008105000842
:100030008105000800000000810500088105000816
:100040008105000881050008810500088105000878
:100050008105000881050008F90800081D0900084D
:1000600041090008650900088909000881050008A0
:100070008105000881050008810500088105000848
:100080008105000881050008810500088105000838
:10009000810500088105000881050008AD090008F8
:1000A0008105000881050008810500088105000818
:1000B0008105000881050008810500088105000808
:1000C00081050008810500088105000881050008F8
:1000D00081050008810500088105000881050008E8
:1000E000550A00088105000800000000810500088D
:1000F00081050008810500088105000881050008C8
:1001000081050008810500088105000881050008B7
:1001100081050008810500088105000881050008A7
:100120008105000881050008810500088105000897
:1001300010B5054C237833B9044B13B10448AFF321
:1001400000800123237010BD00000020000000008B
:10015000700D000808B5034B1BB103490348AFF30A
:10016000008008BD0000000004000020700D0008A1
:1001700080B485B000AF78600023FB600BE0002303
:10018000BB6002E0BB680133BB60BB68FE2BF9D9E2
:10019000FB680133FB60FA687B689A42EFD300BFCB
:1001A0001437BD4680BC704780B500AF524B4FF44A
:1001B00080721A80504B04229A704F4B0122DA70E1
:1001C0004D494E4800F00BFD4B4B4FF400721A8026
:1001D000494B04229A70484B0122DA70464947483D
:1001E00000F0FDFC444B4FF480621A80424B042225
:1001F0009A70414B0122DA703F49404800F0EFFC11
:100200003D4B01221A803C4B04229A703A4B01224A
:10021000DA703949394800F0E2FC374B02221A8083
:10022000354B04229A70344B0122DA70324933483C
:1002300000F0D5FC304B04221A802F4B04229A7018
:100240002D4B0122DA702C492C4800F0C8FC2A4BB7
:1002500008221A80284B04229A70274B0122DA7058
:100260002549264800F0BBFC234B10221A80224B64
:1002700004229A70204B0122DA701F491F4800F0B7
:10028000AEFC1D4B20221A801B4B04229A701A4B85
:100290000122DA701849194800F0A1FC164B4022DF
:1002A0001A80154B04229A70134B0122DA701249FE
:1002B000124800F094FC104B80221A800E4B04224E
:1002C0009A700D4B0122DA700B490C4800F087FC44
:1002D00000224FF48061094800F000FD00224FF435
:1002E0008071064800F0FAFC00224FF400710348C8
:1002F00000F0F4FC00BF80BD200000200008014099
:1003000080B500AF1420FFF733FFFFF74DFF0A2041
:10031000FFF72EFF00F026F8382000F02BF806201B
:1003200000F028F8802000F025F80F2000F022F8D7
:1003300000BF80BD80B500AF01224FF48061084846
:1003400000F0CCFC3220FFF713FF00224FF4806155
:10035000034800F0C3FC3220FFF70AFF00BF80BD56
:100360000008014080B500AF012000F003F800BF95
:1003700080BD000080B582B000AF0346FB71FB7901
:100380009BB219460B4800F0C0FC00224FF40071EC
:10039000084800F0A3FC00224FF48071054800F0EB
:1003A0009DFC0120FFF7E4FEFFF7C4FF00BF083704
:1003B000BD4680BD0008014080B582B000AF034655
:1003C000FB71FB799BB219460B4800F09EFC0022A2
:1003D0004FF40071084800F081FC01224FF4807155
:1003E000054800F07BFC0A20FFF7C2FEFFF7A2FFE2
:1003F00000BF0837BD4680BD0008014080B584B00D
:1004000000AF78600023FB601CE0FB680133FB60F9
:100410007B685A1C7A601B781846FFF7CDFFFB6893
:10042000102B04D10021022000F014F80AE0FB6830
:10043000202B07D1FFF796FF0021012000F00AF8DA
:100440000023FB607B681B78002BDED100BF1037D8
:10045000BD4680BD80B582B000AF03460A46FB7141
:100460001346BB71FB79012B08D1BB790F2B05D843
:10047000BB79803BDBB21846FFF77CFFFB79022B90
:1004800008D1BB790F2B05D8BB79403BDBB21846AE
:10049000FFF770FF00BF0837BD4680BD80B400AFD6
:1004A000034B01221A7000BFBD4680BC704700BFDD
:1004B0001C00002080B586B000AF184B9B69174A1E
:1004C00043F001039361154B9B69144A43F0040305
:1004D0009361124B9B69114A43F008039361FFF744
:1004E0000FFF0F4A3B1D07CA83E8070000233B7438
:1004F00001237B740B4B7B613B1D184600F0F0F928
:10050000094B1B78DBB2002BFAD0FFF72BFF074813
:10051000FFF774FF044B00221A70F1E7001002404D
:10052000A80D00089D0400081C000020880D00088C
:100530000D488546AFF300800C480D490D4A002355
:1005400002E0D458C4500433C4188C42F9D30A4A88
:100550000A4C002301E013600432A242FBD300F0F6
:10056000E3FBFFF7A7FFFEE70028002000000020C4
:1005700000000020BC0D00080000002064000020E6
:10058000FEE7000080B483B000AF0346FB80FB8829
:100590000F2B54D801A252F823F000BFDD0500084C
:1005A000EB050008F9050008070600081506000815
:1005B0002306000823060008230600082306000877
:1005C000230600083106000831060008310600083D
:1005D0003106000831060008310600081A4B1B6876
:1005E000194A43F04003136029E0174B1B68164A71
:1005F00043F08003136022E0134B1B68124A43F45C
:10060000807313601BE0104B1B680F4A43F40073A8
:10061000136014E00C4B1B680B4A43F480631360B7
:100620000DE0094B1B68084A43F40003136006E021
:10063000064B1B68054A43F48073136000BF00BF7C
:100640000C37BD4680BC704700E100E004E100E0EB
:1006500080B483B000AF0346FB80FB880F2B54D8D7
:1006600001A252F823F000BFA9060008B70600084F
:10067000C5060008D3060008E1060008EF060008DA
:10068000EF060008EF060008EF060008EF06000876
:10069000FD060008FD060008FD060008FD0600082E
:1006A000FD060008FD0600081A4B1B68194A43F0B6
:1006B0004003136029E0174B1B68164A43F0800380
:1006C000136022E0134B1B68124A43F480731360DB
:1006D0001BE0104B1B680F4A43F40073136014E0D7
:1006E0000C4B1B680B4A43F4806313600DE0094B0D
:1006F0001B68084A43F40003136006E0064B1B68BE
:10070000054A43F48073136000BF00BF0C37BD4639
:1007100080BC704780E100E084E100E080B584B0F7
:1007200000AF78607B681B893B810123BB727B68CB
:100730005B6807F108021146184600F050FA7B6822
:100740001B889B089BB2FB737B681B88DBB203F0A2
:100750000303DBB29B00BB735A4AFB7B023352F8A4
:100760002320BB7B0F2101FA03F3DB4318465549D5
:10077000FB7B0240023341F82320524AFB7B0233C9
:1007800052F823207B685B684F498B4216D07B6808
:100790005B684E498B420FD07B685B684C498B424B
:1007A00008D07B685B684B498B4201D1032306E08C
:1007B000002304E0022302E0012300E00023B97BD0
:1007C0008B4018463F49FB7B0243023341F823200C
:1007D000414B9B687A681288D24311463E4A0B40CF
:1007E00093603D4BDB687A681288D24311463A4ADF
:1007F0000B40D3607B681B7B002B0BD1364B9B6877
:100800007A681288114601228A401146324A0B4307
:10081000936025E07B681B7B012B0BD12E4BDB68A3
:100820007A681288114601228A4011462A4A0B43EF
:10083000D36015E0284B9B687A6812881146012224
:100840008A401146244A0B439360234BDB687A6845
:100850001288114601228A4011461F4A0B43D36079
:100860007B681B8819467B681B691C4A42F821304B
:100870007B685B7B012B10D1174B1B687A68128851
:10088000114601228A401146134A0B4313607B68CC
:100890001B881846FFF776FE10E00F4B1B687A683E
:1008A0001288114601228A40D24311460A4A0B405F
:1008B00013607B681B881846FFF7CAFE00BF10371D
:1008C000BD4680BD0000014000080140000C014011
:1008D00000100140001401400004014024000020E9
:1008E00080B582B000AF78607868FFF717FF00BF6F
:1008F0000837BD4680BD000080B500AF054B5B6981
:10090000044A43F001035361034B1B68984700BF3F
:1009100080BD00BF000401402400002080B500AF6E
:10092000054B5B69044A43F002035361034B5B6868
:10093000984700BF80BD00BF000401402400002094
:1009400080B500AF054B5B69044A43F00403536173
:10095000034B9B68984700BF80BD00BF0004014067
:100960002400002080B500AF054B5B69044A43F0CA
:1009700008035361034BDB68984700BF80BD00BF8D
:10098000000401402400002080B500AF054B5B69E6
:10099000044A43F010035361034B1B69984700BF9F
:1009A00080BD00BF000401402400002080B500AFDE
:1009B000264B5B6903F02003002B08D0234B5B69B7
:1009C000224A43F020035361214B5B6998471F4B38
:1009D0005B6903F04003002B08D01C4B5B691B4A8A
:1009E00043F0400353611A4B9B699847174B5B696F
:1009F00003F08003002B08D0144B5B69134A43F0CB
:100A000080035361124BDB699847104B5B6903F419
:100A10008073002B08D00D4B5B690C4A43F4807344
:100A200053610B4B1B6A9847084B5B6903F40073D7
:100A3000002B08D0054B5B69044A43F400735361F3
:100A4000034B5B6A984700BF80BD00BF00040140B4
:100A50002400002080B500AF2D4B5B6903F4806358
:100A6000002B08D02A4B5B69294A43F48063536109
:100A7000284B9B6A9847264B5B6903F40063002B65
:100A800008D0234B5B69224A43F400635361214B36
:100A9000DB6A98471E4B5B6903F48053002B08D038
:100AA0001B4B5B691A4A43F480535361194B1B6B10
:100AB0009847174B5B6903F40053002B08D0144B85
:100AC0005B69134A43F400535361124B5B6B9847C5
:100AD0000F4B5B6903F48043002B08D00C4B5B6920
:100AE0000B4A43F4804353610A4B9B6B9847084B76
:100AF0005B6903F40043002B08D0054B5B69044A93
:100B000043F400435361034BDB6B984700BF80BD48
:100B1000000401402400002080B483B000AF0346ED
:100B2000FB80FB88802B42D0802B11DC082B36D039
:100B3000082B06DC022B2ED0042B2ED0012B28D024
:100B400047E0202B2FD0402B2FD0102B29D040E076
:100B5000B3F5006F33D0B3F5006F09DCB3F5007F58
:100B600029D0B3F5806F28D0B3F5807F21D030E055
:100B7000B3F5005F27D0B3F5005F03DCB3F5805F0A
:100B80001FD026E0B3F5804F1FD0B3F5004F1ED025
:100B90001FE000231EE004231CE008231AE00C23BE
:100BA00018E0102316E0142314E0182312E01C238D
:100BB00010E000230EE004230CE008230AE00C23DD
:100BC00008E0102306E0142304E0182302E01C23AD
:100BD00000E0002318460C37BD4680BC704790B536
:100BE00085B000AF786039600023BB600023FB73E1
:100BF0003B681B88FF2B01D87B6801E07B680433CE
:100C0000BB603B681B881846FFF786FF03461A4601
:100C10000F239340DA43BB681B681A40BB681A6015
:100C20003B689B78042B0BD03B689B78052B07D047
:100C30003B689B78062B03D03B689B78072B0ED133
:100C40003B689B78043B9B005AB23B68DB785BB205
:100C500013435BB2DBB203F00F03FB732CE03B6882
:100C60009B78002B03D03B689B78012B07D13B6816
:100C70009B789B00DBB203F00F03FB731CE03B6827
:100C80009B78082B02D10423FB7315E00823FB7328
:100C90003B689B78022B07D17B68DB683A68128837
:100CA0001A437B68DA6007E07B68DB683A68128881
:100CB000D2431A407B68DA60FC7B3B681B8818468D
:100CC000FFF72AFF034604FA03F2BB681B681A43C6
:100CD000BB681A6000BF1437BD4690BD80B483B0B6
:100CE00000AF78600B467B8013467B707B78012BCE
:100CF00003D17A887B681A6102E07A887B685A613E
:100D000000BF0C37BD4680BC704780B483B000AFD5
:100D100078600B467B807A887B68DA6000BF0C378E
:100D2000BD4680BC7047000070B500250C4E0D4CD0
:100D3000A41BA410A54209D100F01AF800250A4E00
:100D40000A4CA41BA410A54205D170BD56F825304D
:100D500098470135EEE756F8253098470135F2E718
:100D6000B40D0008B40D0008B40D0008B80D00085B
:100D7000F8B500BFF8BC08BC9E467047F8B500BF88
:080D8000F8BC08BC9E46704758
:100D8800496E7465727275707420747269676765EC
:100D9800726564206F6E20504239202100000000E7
:0C0DA80009000000000C014000021700D0
:040DB40055010008DD
:040DB80031010008FD
:0400000508000531B9
:00000001FF
