:100000000C942A000C9461020C9488020C94AF02A8
:100010000C9447000C9447000C9447000C94470044
:100020000C9447000C9447000C9447000C94470034
:100030000C9447000C9447000C9447000C94470024
:100040000C9447000C9447000C9447000C94D60283
:100050000C94470011241FBECFE5D8E0DEBFCDBF12
:1000600010E0A0E6B0E0E8EEF6E002C005900D92E8
:10007000A237B107D9F720E0A2E7B0E001C01D9296
:10008000A039B207E1F70E940C020C9472030C94A1
:100090000000CF93DF9300D000D0CDB7DEB71A8237
:1000A000198214C01C821B8206C02B813C812F5FE9
:1000B0003F4F3C832B832B813C81283E3340A8F368
:1000C00029813A812F5F3F4F3A83298329813A81E1
:1000D0002817390738F30F900F900F900F90DF918A
:1000E000CF910895CF93DF9300D000D000D0CDB74B
:1000F000DEB780E4898386E08A831C8287E08B8375
:100100001E821D82CE0101960E9411020E947B0177
:1001100060E080E00E94CD0180E690E00E94E40172
:1001200026960FB6F894DEBF0FBECDBFDF91CF91FC
:1001300008950E94440290937500809374004AE0F1
:1001400066E770E00E943D0360E081E00E94CD011F
:100150008BE690E00E94E40160E081E00E94CD0126
:1001600086E790E00E94E40184EF91E00E9449005C
:1001700008951F93CF93DF9300D0CDB7DEB712E081
:1001800019831A83BE016F5F7F4F86E390E00E9460
:10019000FF0284E089831A83BE016F5F7F4F86E38D
:1001A00090E00E94FF0288E089831A83BE016F5F9E
:1001B0007F4F86E390E00E94FF0280E189831A83EB
:1001C000BE016F5F7F4F89E390E00E94FF0280E2F3
:1001D00089831A83BE016F5F7F4F89E390E00E949D
:1001E000FF0280E489831A83BE016F5F7F4F89E33A
:1001F00090E00E94FF0280E889831A83BE016F5F4E
:100200007F4F89E390E00E94FF0240E068E086E3D0
:1002100090E00E94310340E062E086E390E00E94BB
:10022000310340E064E086E390E00E9431030F90E8
:100230000F90DF91CF911F91089540E068E086E331
:1002400090E00E94310320E030E009C0019602C036
:1002500080E090E08F3F9105C8F32F5F3F4F223041
:100260003105B0F341E068E086E390E00E9431039D
:1002700020E030E009C0019602C080E090E08F3FAE
:100280009105C8F32F5F3F4F22303105B0F3089539
:10029000CF93C82F8BB38F709C2F907F892B8BBBF4
:1002A00040E062E086E390E00E94310340E064E0D9
:1002B00086E390E00E9431030E941D012BB330E1E0
:1002C000C39FC0011124922F9F70892B8BBB40E0EC
:1002D00062E086E390E00E94310340E064E086E360
:1002E00090E00E9431030E941D01CF91089581E0AA
:1002F0000E944801089520E030E009C0019602C044
:1003000080E090E08F3F9105C8F32F5F3F4F24318D
:100310003105B0F30E94B9000E94770182E00E948B
:10032000480188E20E94480186E00E94480180E876
:100330000E9448018FE00E9448010895CF93C82F82
:100340008BB38F709C2F907F892B8BBB41E062E039
:1003500086E390E00E94310340E064E086E390E0B1
:100360000E9431030E941D012BB330E1C39FC001E5
:100370001124922F9F70892B8BBB41E062E086E3B2
:1003800090E00E94310340E064E086E390E00E9448
:1003900031030E941D01CF910895CF93DF93C82FA1
:1003A000D62F813031F4603120F480E8860F0E942E
:1003B0004801C23031F4D03120F480EC8D0F0E941E
:1003C0004801DF91CF9108950F931F93CF93DF934F
:1003D0008C01C0E0D0E017C021960F5F1F4F0E9434
:1003E0009E01C031D10521F460E082E00E94CD0180
:1003F000C032D10541F40E94770160E081E00E94A3
:10040000CD01C0E0D0E0F80180818111E5CFDF911E
:10041000CF911F910F9108950E9472000E94990040
:10042000FDCFDC019093890080938800E0918600E5
:10043000F091870083818F73838393818C91892BC3
:1004400083838281887F8283928111968C91119718
:10045000892B828313968C91883059F48FB78068EA
:100460008FBFE0918600F09187008281886082834F
:1004700003C08281877F8283E0918600F0918700AC
:100480008281806882830895E0918600F0918700E0
:100490008381807E83839381A0918800B0918900BD
:1004A00012968C91892B83838281806482838281DE
:1004B00086FDFDCF2081818190E0982F8827822BB7
:1004C00008951F920F920FB60F9211242F933F930E
:1004D0004F935F936F937F938F939F93AF93BF934C
:1004E000EF93FF93E0918A00F0918B000995FF91C3
:1004F000EF91BF91AF919F918F917F916F915F919C
:100500004F913F912F910F900FBE0F901F90189514
:100510001F920F920FB60F9211242F933F934F9378
:100520005F936F937F938F939F93AF93BF93EF935B
:10053000FF93E0918C00F0918D000995FF91EF9170
:10054000BF91AF919F918F917F916F915F914F91EB
:100550003F912F910F900FBE0F901F9018951F92F3
:100560000F920FB60F9211242F933F934F935F93E7
:100570006F937F938F939F93AF93BF93EF93FF936B
:10058000E0918E00F0918F000995FF91EF91BF915E
:10059000AF919F918F917F916F915F914F913F911B
:1005A0002F910F900FBE0F901F9018951F920F92D2
:1005B0000FB60F9211242F933F934F935F936F9336
:1005C0007F938F939F93AF93BF93EF93FF93E091AC
:1005D0007200F0917300309709F00995FF91EF9147
:1005E000BF91AF919F918F917F916F915F914F914B
:1005F0003F912F910F900FBE0F901F901895FC0107
:10060000DB0111968C91119781110BC091818C9116
:1006100080958923818392818C918095892382831F
:100620000895813051F491818C9180958923818343
:1006300092818C91892B8283089591818C91892B51
:10064000818311968C911197833029F492818C913A
:10065000892B8283089592818C918095892382834E
:100660000895FC01413021F48281682B6283089552
:1006700092816095692362830895BB274A3031F4E3
:10068000992322F4BDE2909581959F4F0C944903E4
:10069000BB27FB015527AA27880F991FAA1FA4175C
:1006A00010F0A41B83955051B9F7A05DAA3308F050
:1006B000A95DA193009779F7B111B1931192CB0184
:1006C0000C946203DC01FC01672F71917723E1F741
:1006D000329704C07C916D9370836291AE17BF070F
:0806E000C8F30895F894FFCF60
:1006E8004144432056616C75653A00202020202043
:0206F800000000
:00000001FF
