:020000040800F2
:1000000000280020410A0008910A0008910A00080F
:10001000910A0008910A0008910A000800000000F7
:10002000000000000000000000000000910A00082D
:10003000910A000800000000910A0008910A0008D7
:10004000910A0008910A0008910A0008910A000824
:10005000910A0008910A0008910A0008910A000814
:10006000910A0008910A0008910A0008910A000804
:10007000910A0008910A0008910A0008910A0008F4
:10008000910A0008910A0008910A0008910A0008E4
:10009000910A0008910A0008910A0008910A0008D4
:1000A000910A0008910A0008910A0008910A0008C4
:1000B000910A0008910A0008910A0008910A0008B4
:1000C000910A0008910A0008910A0008910A0008A4
:1000D000910A0008910A0008910A0008910A000894
:1000E000910A0008910A000800000000910A000827
:1000F000910A0008910A0008910A0008910A000874
:10010000910A0008910A0008910A0008910A000863
:10011000910A0008910A0008910A0008910A000853
:10012000910A0008910A0008910A0008910A000843
:1001300010B5054C237833B9044B13B10448AFF321
:1001400000800123237010BD740000200000000017
:10015000841C000808B5034B1BB103490348AFF3E7
:10016000008008BD0000000078000020841C00080A
:1001700080F0004002E000BF81F0004142001FBF5C
:100180005FEA410392EA030F7FEA226C7FEA236C65
:100190006AD04FEA1262D2EB1363C1BFD21841405A
:1001A00048404140B8BF5B42192B88BF704710F0F0
:1001B000004F40F4000020F07F4018BF404211F093
:1001C000004F41F4000121F07F4118BF494292EAFB
:1001D000030F3FD0A2F1010241FA03FC10EB0C0027
:1001E000C3F1200301FA03F100F0004302D54942B4
:1001F00060EB4000B0F5000F13D3B0F1807F06D361
:1002000040084FEA310102F10102FE2A51D2B1F158
:10021000004F40EBC25008BF20F0010040EA03004D
:100220007047490040EB000010F4000FA2F10102FA
:10023000EDD1B0FA80FCACF1080CB2EB0C0200FA84
:100240000CF0AABF00EBC25052421843BCBFD040D2
:100250001843704792F0000F81F4000106BF80F44C
:1002600000000132013BB5E74FEA41037FEA226C0F
:1002700018BF7FEA236C21D092EA030F04D092F0DA
:10028000000F08BF0846704790EA010F1CBF00200E
:10029000704712F07F4F04D1400028BF40F000406B
:1002A000704712F100723CBF00F50000704700F08B
:1002B000004343F0FE4040F4000070477FEA2262B2
:1002C00016BF08467FEA23630146420206BF5FEA83
:1002D000412390EA010F40F4800070474FF0000383
:1002E00004E000BF10F0004348BF40425FEA000C4A
:1002F00008BF704743F0964301464FF000001CE0F2
:1003000050EA010208BF70474FF000030AE000BF47
:1003100050EA010208BF704711F0004302D5404285
:1003200061EB41015FEA010C02BF844601460020F7
:1003300043F0B64308BFA3F18053A3F50003BCFA12
:100340008CF2083AA3EBC25310DB01FA02FC6344BF
:1003500000FA02FCC2F12002BCF1004F20FA02F2C6
:1003600043EB020008BF20F00100704702F12002B9
:1003700001FA02FCC2F1200250EA4C0021FA02F21A
:1003800043EB020008BF20EADC7070474FF0FF0C1F
:100390001CEAD0521EBF1CEAD15392EA0C0F93EA1A
:1003A0000C0F6FD01A4480EA010C400218BF5FEABC
:1003B00041211ED04FF0006343EA501043EA51112F
:1003C000A0FB01310CF00040B1F5000F3EBF490029
:1003D00041EAD3715B0040EA010062F17F02FD2A2D
:1003E0001DD8B3F1004F40EBC25008BF20F0010010
:1003F000704790F0000F0CF0004C08BF49024CEA27
:10040000502040EA51207F3AC2BFD2F1FF0340EAB8
:10041000C250704740F400004FF00003013A5DDC29
:1004200012F1190FDCBF00F000407047C2F100026A
:10043000410021FA02F1C2F1200200FA02FC5FEA57
:10044000310040F1000053EA4C0308BF20EADC70A1
:10045000704792F0000F00F0004C02BF400010F413
:10046000000F013AF9D040EA0C0093F0000F01F0C0
:10047000004C02BF490011F4000F013BF9D041EAE2
:100480000C018FE70CEAD15392EA0C0F18BF93EAE4
:100490000C0F0AD030F0004C18BF31F0004CD8D10E
:1004A00080EA010000F00040704790F0000F17BF95
:1004B00090F0004F084691F0000F91F0004F14D0DB
:1004C00092EA0C0F01D142020FD193EA0C0F03D133
:1004D0004B0218BF084608D180EA010000F0004036
:1004E00040F0FE4040F40000704740F0FE4040F411
:1004F000400070474FF0FF0C1CEAD0521EBF1CEAB0
:10050000D15392EA0C0F93EA0C0F69D0A2EB0302CD
:1005100080EA010C49024FEA402037D04FF0805367
:1005200043EA111143EA10130CF000408B4238BF2C
:100530005B0042F17D024FF4000C8B4224BF5B1A3A
:1005400040EA0C00B3EB510F24BFA3EB510340EA88
:100550005C00B3EB910F24BFA3EB910340EA9C0036
:10056000B3EBD10F24BFA3EBD10340EADC001B01A6
:1005700018BF5FEA1C1CE0D1FD2A3FF650AF8B424A
:1005800040EBC25008BF20F0010070470CF0004C57
:100590004CEA50207F32C2BFD2F1FF0340EAC25082
:1005A000704740F400004FF00003013A37E792F043
:1005B000000F00F0004C02BF400010F4000F013AA1
:1005C000F9D040EA0C0093F0000F01F0004C02BF9C
:1005D000490011F4000F013BF9D041EA0C0195E705
:1005E0000CEAD15392EA0C0F08D142027FF47DAF9E
:1005F00093EA0C0F7FF470AF084676E793EA0C0F8E
:1006000004D14B023FF44CAF08466EE730F0004C8B
:1006100018BF31F0004CCAD130F000427FF45CAF1B
:1006200031F000437FF43CAF5FE700BF4FF0FF3C89
:1006300006E000BF4FF0010C02E000BF4FF0010CDC
:100640004DF804CD4FEA40024FEA41037FEA226CA5
:1006500018BF7FEA236C11D001B052EA530C18BFC7
:1006600090EA010F58BFB2EB030088BFC81738BF2C
:100670006FEAE17018BF40F0010070477FEA226C1A
:1006800002D15FEA402C05D17FEA236CE4D15FEA16
:10069000412CE1D05DF8040B704700BF844608464A
:1006A0006146FFE70FB5FFF7C9FF002848BF10F10B
:1006B000000F0FBD4DF808EDFFF7F4FF0CBF012050
:1006C00000205DF808FB00BF4DF808EDFFF7EAFFDA
:1006D00034BF012000205DF808FB00BF4DF808ED95
:1006E000FFF7E0FF94BF012000205DF808FB00BF8A
:1006F0004DF808EDFFF7D2FF94BF012000205DF810
:1007000008FB00BF4DF808EDFFF7C8FF34BF01201C
:1007100000205DF808FB00BF4FEA4002B2F1FE4F37
:100720000FD34FF09E03B3EB12620DD94FEA0023B3
:1007300043F0004310F0004F23FA02F018BF40428C
:1007400070474FF00000704712F1610F01D1420273
:1007500005D110F0004008BF6FF0004070474FF027
:100760000000704780B400AF074B9B69064A43F016
:1007700004039361044B9B69034A43F008039361AC
:1007800000BFBD4680BC70470010024080B485B0F9
:1007900000AF78600023FB600BE00023BB6002E049
:1007A000BB680133BB60BB68FE2BF9D9FB68013322
:1007B000FB60FA687B689A42EFD300BF1437BD46EE
:1007C00080BC704790B587B000AF0023FB75002355
:1007D000BB754FF000033B614FF00003FB604FF02F
:1007E0000003BB60FFF7BEFF00F030FC724800F072
:1007F000ABFC142000F062FB00F05AFC6F4800F0E4
:10080000A3FC00F027FD0323FB71FB79184600F0E1
:100810007FFDFA20FFF7BAFFFB79002B03D0FB79AD
:10082000013BFB71F1E700BF0120FFF7AFFF00F0D4
:100830003FFC00F049FA624800F086FC0A20FFF70E
:10084000A5FF00F035FC00F07FFA0346BB71BB79D1
:100850004E2B00F0AF80BB793F2B0DD100F028FC70
:100860004FF00003BB60BB68FB60FB683B6100238B
:10087000BB750023FB75E6E7BB792F2B2FD9BB791E
:10088000392B2CD8BB79184600F03CFCFB7D002BA3
:1008900012D14C493869FFF779FD03461C46BB79F4
:1008A000303B1846FFF71EFD034619462046FFF76A
:1008B00065FC03463B617EE04249F868FFF766FD50
:1008C00003461C46BB79303B1846FFF70BFD034639
:1008D00019462046FFF752FC0346FB606BE0BB79EC
:1008E0002B2B08D0BB792D2B05D0BB792A2B02D01E
:1008F000BB792F2B08D1BB79184600F003FCBB79DC
:10090000BB750123FB7556E0BB793D2B9BD10021C4
:10091000022000F045FC2C4800F016FCBB7D2A3B71
:10092000052B43D801A252F823F000BF610900084B
:1009300045090008AD09000853090008AD09000881
:100940006F090008F9683869FFF718FC0346BB60B7
:100950002CE0F9683869FFF70FFC0346BB6025E01F
:10096000F9683869FFF712FD0346BB601EE04FF0DF
:100970000001F868FFF79EFE0346002B06D1F968D8
:100980003869FFF7B7FD0346BB600FE000F090FB4E
:10099000142000F093FA0D4800F0D6FB002102204D
:1009A00000F0FEFB0A4800F0CFFB04E0B86800F05E
:1009B0001BFC48E700BF46E79C1C0008B81C000869
:1009C000C81C000800002041D81C0008E41C0008D6
:1009D000EC1C000880B586B000AF7860144A154B57
:1009E000D31A7B617B693B61134B1B68002B02D1DF
:1009F000114B124A1A60104B1A687B6813443A690B
:100A00009A4207D200F002FD02460C2313604FF019
:100A1000FF3309E0084B1B68FB60074B1A687B68D3
:100A20001344054A1360FB6818461837BD4680BD5D
:100A3000002800200004000090000020A8000020F2
:100A40000D488546AFF300800C480D490D4A002340
:100A500002E0D458C4500433C4188C42F9D30A4A73
:100A60000A4C002301E013600432A242FBD300F0E1
:100A7000D3FCFFF7A7FEFEE70028002000000020BF
:100A800074000020401D000874000020A400002015
:100A9000FEE780B483B000AF0346FB80FB88802B69
:100AA00042D0802B11DC082B36D0082B06DC022B21
:100AB0002ED0042B2ED0012B28D047E0202B2FD076
:100AC000402B2FD0102B29D040E0B3F5006F33D04E
:100AD000B3F5006F09DCB3F5007F29D0B3F5806F63
:100AE00028D0B3F5807F21D030E0B3F5005F27D068
:100AF000B3F5005F03DCB3F5805F1FD026E0B3F5EC
:100B0000804F1FD0B3F5004F1ED01FE000231EE022
:100B100004231CE008231AE00C2318E0102316E03D
:100B2000142314E0182312E01C2310E000230EE02D
:100B300004230CE008230AE00C2308E0102306E05D
:100B4000142304E0182302E01C2300E000231846CD
:100B50000C37BD4680BC704790B585B000AF78605B
:100B600039600023BB600023FB733B681B88FF2BAD
:100B700001D87B6801E07B680433BB603B681B885D
:100B80001846FFF786FF03461A460F239340DA43C1
:100B9000BB681B681A40BB681A603B689B78042BD3
:100BA0000BD03B689B78052B07D03B689B78062BC6
:100BB00003D03B689B78072B0ED13B689B78043BA6
:100BC0009B005AB23B68DB785BB213435BB2DBB28B
:100BD00003F00F03FB732CE03B689B78002B03D0E2
:100BE0003B689B78012B07D13B689B789B00DBB26D
:100BF00003F00F03FB731CE03B689B78082B02D1CA
:100C00000423FB7315E00823FB733B689B78022BDE
:100C100007D17B68DB683A6812881A437B68DA6020
:100C200007E07B68DB683A681288D2431A407B6829
:100C3000DA60FC7B3B681B881846FFF72AFF0346F7
:100C400004FA03F2BB681B681A43BB681A6000BF52
:100C50001437BD4690BD80B483B000AF78600B46BA
:100C60007B807B689A687B881340002B14BF01232C
:100C70000023DBB218460C37BD4680BC704780B4F9
:100C800083B000AF78600B467B8013467B707B7827
:100C9000012B03D17A887B681A6102E07A887B682D
:100CA0005A6100BF0C37BD4680BC704780B483B02A
:100CB00000AF78600B467B807A887B68DA6000BF83
:100CC0000C37BD4680BC704780B584B000AF0023B0
:100CD000FB6010E0194AFB6832F81330BB80042334
:100CE000BB710123FB713B1D19461548FFF734FF0B
:100CF000FB680133FB60FB68032BEBDD0023BB606B
:100D000010E0104ABB6832F81330BB800423BB717B
:100D10000123FB713B1D19460948FFF71DFFBB6806
:100D20000133BB60BB68032BEBDDFF210448FFF7F9
:100D3000BDFF00BF1037BD4680BD00BF00000020D2
:100D4000000C01400800002080B584B000AF0023F3
:100D5000FB60A4E00023BB600BE0554ABB6832F89F
:100D60001330012219465348FFF789FFBB6801334E
:100D7000BB60BB68032BF0DD4D4AFB6832F81330D3
:100D8000002219464B48FFF77AFF00237B607FE083
:100D9000494A7B6832F8133019464648FFF75BFF33
:100DA0000346002B71D100BF434A7B6832F81330F1
:100DB00019464048FFF74FFF0346002BF4D0FB686D
:100DC000032B62D801A252F823F000BFDD0D00080A
:100DD000050E00082D0E0008550E00087B68002B3C
:100DE00001D1372360E07B68012B01D134235BE024
:100DF0007B68022B01D1312356E07B68032B3DD168
:100E00003F2351E07B68002B01D138234CE07B6805
:100E1000012B01D1352347E07B68022B01D132231E
:100E200042E07B68032B2BD130233DE07B68002B15
:100E300001D1392338E07B68012B01D1362333E01F
:100E40007B68022B01D133232EE07B68032B19D161
:100E50003D2329E07B68002B01D12F2324E07B6810
:100E6000012B01D12A231FE07B68022B01D12D2306
:100E70001AE07B68032B07D12B2315E000BF04E0A9
:100E800000BF02E000BF00E000BF7B6801337B6071
:100E90007B68032B7FF77CAFFB680133FB60FB684B
:100EA000032B7FF757AF4E2318461037BD4680BD42
:100EB00008000020000C01400000002080B485B034
:100EC00000AF78600023FB600BE00023BB6002E012
:100ED000BB680133BB60BB68FE2BF9D9FB680133EB
:100EE000FB60FA687B689A42EFD300BF1437BD46B7
:100EF00080BC704780B500AF524B4FF480721A80AF
:100F0000504B04229A704F4B0122DA704D494E48E3
:100F1000FFF722FE4B4B4FF400721A80494B04221C
:100F20009A70484B0122DA7046494748FFF714FE91
:100F3000444B4FF480621A80424B04229A70414B1A
:100F40000122DA703F494048FFF706FE3D4B01227F
:100F50001A803C4B04229A703A4B0122DA703949CC
:100F60003948FFF7F9FD374B02221A80354B04222E
:100F70009A70344B0122DA7032493348FFF7ECFDA6
:100F8000304B04221A802F4B04229A702D4B0122E1
:100F9000DA702C492C48FFF7DFFD2A4B08221A8013
:100FA000284B04229A70274B0122DA7025492648E3
:100FB000FFF7D2FD234B10221A80224B04229A7095
:100FC000204B0122DA701F491F48FFF7C5FD1D4B5A
:100FD00020221A801B4B04229A701A4B0122DA70CD
:100FE00018491948FFF7B8FD164B40221A80154BD7
:100FF00004229A70134B0122DA7012491248FFF74B
:10100000ABFD104B80221A800E4B04229A700D4BC0
:101010000122DA700B490C48FFF79EFD00224FF4C5
:1010200080610948FFF72BFE00224FF480710648CB
:10103000FFF725FE00224FF400710348FFF71FFE63
:1010400000BF80BD9C0000200008014080B500AFBB
:101050001420FFF733FFFFF74DFF0A20FFF72EFFA5
:1010600000F026F8382000F02BF8062000F028F8D1
:10107000802000F025F80F2000F022F800BF80BD8E
:1010800080B500AF01224FF480610848FFF7F7FDFB
:101090003220FFF713FF00224FF480610348FFF76F
:1010A000EEFD3220FFF70AFF00BF80BD00080140BF
:1010B00080B500AF012000F003F800BF80BD000044
:1010C00080B582B000AF0346FB71FB799BB2194635
:1010D0000B48FFF7EBFD00224FF400710848FFF7C3
:1010E000CEFD00224FF480710548FFF7C8FD0120B6
:1010F000FFF7E4FEFFF7C4FF00BF0837BD4680BD21
:101100000008014080B582B000AF0346FB71FB7957
:101110009BB219460B48FFF7C9FD00224FF400713E
:101120000848FFF7ACFD01224FF480710548FFF736
:10113000A6FD0A20FFF7C2FEFFF7A2FF00BF083797
:10114000BD4680BD0008014080B584B000AF786026
:101150000023FB601CE0FB680133FB607B685A1CCA
:101160007A601B781846FFF7CDFFFB68102B04D17F
:101170000021022000F014F80AE0FB68202B07D1C0
:10118000FFF796FF0021012000F00AF80023FB6022
:101190007B681B78002BDED100BF1037BD4680BDB9
:1011A00080B582B000AF03460A46FB711346BB719F
:1011B000FB79012B08D1BB790F2B05D8BB79803B7C
:1011C000DBB21846FFF77CFFFB79022B08D1BB7915
:1011D0000F2B05D8BB79403BDBB21846FFF770FFF9
:1011E00000BF0837BD4680BD80B588B000AF7860CD
:1011F0007868FFF791FA0346BB61B869FFF772F8A8
:10120000034619467868FEF7B7FF03460F491846AC
:10121000FFF7BCF803461846FFF77EFA0346FB616A
:10122000FB69002B02DAFB695B42FB6107F10800F6
:10123000FB69BA69064900F013F907F1080318467B
:10124000FFF782FF00BF2037BD4680BD00007A4413
:10125000FC1C000880B582B000AF4FF40073BB8067
:101260000423BB710123FB713B1D19462748FFF77F
:1012700073FC4FF48063BB800423BB710123FB71BB
:101280003B1D19462148FFF767FC4FF40063BB8004
:101290000423BB710123FB713B1D19461B48FFF75B
:1012A0005BFC4FF48053BB800423BB710123FB71B3
:1012B0003B1D19461548FFF74FFC4FF40053BB8008
:1012C0000423BB710123FB713B1D19460F48FFF737
:1012D00043FC4FF48043BB800423BB710123FB71AB
:1012E0003B1D19460948FFF737FC4FF40043BB800C
:1012F0000423BB710123FB713B1D19460348FFF713
:101300002BFC00BF0837BD4680BD00BF000C01406C
:1013100080B586B000AF0346FB7107F10C030022D5
:101320001A605A60C3F8072001233B7379237B734B
:101330002423BB733023FB734C233B7412237B7435
:101340000223BB741923FB7410237B75FB7907F10F
:101350001802134413F80C3CFB75FB7D03F00103EA
:10136000DBB21A464FF400712748FFF788FCFB7D7B
:101370005B08DBB203F00103DBB21A464FF4806175
:101380002148FFF77CFCFB7D9B08DBB203F00103E7
:10139000DBB21A464FF400611B48FFF770FCFB7D7F
:1013A000DB08DBB203F00103DBB21A464FF48051D5
:1013B0001548FFF764FCFB7D1B09DBB203F001035A
:1013C000DBB21A464FF400510F48FFF758FCFB7D83
:1013D0005B09DBB203F00103DBB21A464FF4804134
:1013E0000948FFF74CFCFB7D9B09DBB203F00103CE
:1013F000DBB21A464FF400410348FFF740FC00BF40
:101400001837BD4680BD00BF000C0140014B186875
:10141000704700BF1000002070B500250C4E0D4C29
:10142000A41BA410A54209D100F02CFC00250A4EF3
:101430000A4CA41BA410A54205D170BD56F8253056
:1014400098470135EEE756F8253098470135F2E721
:10145000381D0008381D0008381D00083C1D000814
:101460000EB46FF0004100B59CB01DAB0290069029
:10147000079104910848094953F8042B0591006825
:1014800002A9019300F066F80022029B1A701CB0BA
:101490005DF804EB03B07047100000200802FFFF66
:1014A0002DE9F0478E6882469E420C46904699464A
:1014B00037D88A8912F4906F31D0022325680969E0
:1014C0006F1A656905EB450595FBF3F509F1010315
:1014D0003B449D4238BF1D46530530D5294600F098
:1014E00037FB064650B90C234FF0FF30CAF80030E6
:1014F000A38943F04003A381BDE8F0873A46216900
:1015000000F0B6FAA38923F4906343F08003A3812B
:1015100026613E4426604E466561ED1BA5604E4542
:1015200000D94E4632464146206800F0ACFAA36826
:1015300000209B1BA36023681E442660DCE72A462C
:1015400000F060FB06460028E2D12169504600F019
:10155000B3FAC8E72DE9F04F1D468B899DB01F06F1
:1015600080460C4616460FD50B696BB9402100F03A
:10157000EFFA2060206128B90C23C8F800304FF042
:10158000FF30C8E0402363610023099320238DF8D6
:10159000293030234FF0010B8DF82A300395374660
:1015A0003D4615F8013B0BB1252B3ED1B7EB060AA2
:1015B0000BD05346324621464046FFF771FF0130BB
:1015C00000F0A480099B534409933B78002B00F062
:1015D0009D8000234FF0FF32CDE90523049307934C
:1015E0008DF853301A932F46052217F8011B5048E7
:1015F00000F030FA049BD0B9D90644BF20228DF800
:1016000053201A0744BF2B228DF853202A782A2A08
:1016100015D02F4600200A25079A394611F8013BBC
:10162000303B092B4DD9B8B10FE02F46B8E7404AFF
:101630003D46801A0BFA00F018430490D3E7039A52
:10164000111D12680391002A01DB079204E0524247
:1016500043F00203079204933B782E2B0CD17B7846
:101660002A2B33D1039B02371A1D1B680392002BD0
:10167000B8BF4FF0FF3305932E4D0322397828462B
:1016800000F0E8F938B14023401B03FA00F0049B56
:101690000137034304933978062227487E1C8DF8CE
:1016A000281000F0D7F9002838D0244B13BB039B37
:1016B000073323F0070308330393099B4B44099333
:1016C0006DE705FB023201200F46A6E700230A253D
:1016D000194601370593384610F8012B303A092A8C
:1016E00003D9002BC8D00591C6E705FB01210123D2
:1016F0000746F0E703AB00932246114B04A940468E
:10170000AFF30080B0F1FF3F8146D6D1A3895B06DD
:101710003FF535AF09981DB0BDE8F08F03AB0093DE
:101720002246074B04A9404600F082F8EAE700BFD2
:10173000041D00080A1D00080E1D0008000000001E
:10174000A11400082DE9F04791461F468A680B69ED
:1017500006469342B8BF1346C9F8003091F84320BB
:101760000C46DDF8208012B10133C9F8003023683F
:10177000990642BFD9F800300233C9F80030256815
:1017800015F0060507D104F1190AE368D9F800201D
:101790009B1AAB4229DC94F843302268003318BF0F
:1017A000012392062ED404F1430239463046C04745
:1017B000013021D02368E56803F00603042B18BF2D
:1017C0000025D9F800204FF0000908BFAD1AA36822
:1017D000226908BF25EAE5759342C4BF9B1AED183C
:1017E0001A344D451AD1002008E0012352463946EB
:1017F0003046C047013003D14FF0FF30BDE8F087DD
:101800000135C2E73020E11881F843005A1C94F8F2
:1018100045102244023382F84310C4E701232246D4
:1018200039463046C0470130E6D009F10109D8E712
:101830002DE9F04301F1430C0C46097E85B06E2979
:101840001746064698460C9A00F0B38022D86329C2
:1018500036D00AD8002900F0B980582900F08380DA
:1018600004F1420584F8421032E0642901D069296C
:10187000F6D120681368050603F104012AD51B6818
:101880001160002B03DA2D225B4284F843206F485D
:101890000A2239E0732900F09D8008D86F2920D0F2
:1018A0007029DDD1236843F02003236003E075290C
:1018B00017D07829D4D17823654884F8453055E08D
:1018C000136804F14205191D1B68116084F8423049
:1018D00001238CE01B6810F0400F116018BF1BB291
:1018E000CFE713682568181D1060280601D51B680E
:1018F00002E06806FBD51B886F2914BF0A22082264
:101900005248002184F843106568002DA560C0F29C
:101910009580216821F004012160002B3DD1002D2C
:1019200040F08E806546082A0BD12368DB0708D576
:10193000236962689A42DEBF302305F8013C05F155
:10194000FF35ACEB05032361CDF800803B4603AACD
:1019500021463046FFF7F6FE01304DD14FF0FF3003
:1019600005B0BDE8F083394884F845101368216854
:101970001D1D1B6815600A060BD5CA0744BF41F040
:10198000200121601BB9226822F02002226010226F
:10199000B7E74D0648BF9BB2EFE76546B3FBF2F1F0
:1019A00002FB1133C35C05F8013D0B460029F5D15C
:1019B000B9E713682568181D6169106028061B685F
:1019C00001D5196002E06A06FBD51980002365463F
:1019D0002361B9E71368191D11601D686268002151
:1019E000284600F037F808B1401B60606368236147
:1019F000002384F84330A7E723692A463946304656
:101A0000C0470130AAD023689B0713D4E068039B2A
:101A10009842B8BF1846A3E701234A4639463046E4
:101A2000C04701309AD00135E368039A9B1AAB4254
:101A3000F2DCEBE7002504F11909F5E7002BACD146
:101A4000037804F1420584F842306CE7151D000864
:101A5000261D000810B5C9B202449042034601D1C8
:101A6000002303E01C7801308C42F6D1184610BDEB
:101A700010B5431E0A44914200D110BD11F8014B2C
:101A800003F8014FF7E7884210B501EB020307D8CE
:101A9000421E99420AD011F8014B02F8014FF8E7B3
:101AA0008342F5D98118D21AD34200D110BD13F860
:101AB000014D01F8014DF7E738B50546002943D03F
:101AC00051F8043C0C1F002BB8BFE41800F0D0F80C
:101AD0001E4A1368104633B9636014602846BDE897
:101AE000384000F0C6B8A3420BD92168621893426F
:101AF00001BF1A685B685218226063600460EDE7FA
:101B000013465A680AB1A242FAD919685818A04275
:101B10000BD120680144581882421960DED1106848
:101B20005268014419605A60D8E702D90C232B602F
:101B3000D4E7206821188A4201BF11685268091849
:101B4000216062605C60C9E738BD00BF940000207E
:101B500070B5CD1C25F0030508350C2D38BF0C25BC
:101B6000002D064601DBA94203D90C233360002077
:101B700070BD00F07DF8214A1468214691B9204CCF
:101B800023681BB9304600F063F8206029463046D0
:101B900000F05EF8431C24D10C233046336000F083
:101BA00068F8E4E70B685B1B18D40B2B0FD90B60AC
:101BB000CC18CD50304600F05CF804F10B00231D2A
:101BC00020F00700C31AD3D05A42E250D0E74B6846
:101BD0008C4216BF636013600C46EBE70C46496805
:101BE000CCE7C41C24F00304A04205D0211A3046DF
:101BF00000F02EF80130CFD02560DBE79400002004
:101C000098000020F8B5074614460E4621B9BDE8F5
:101C1000F8401146FFF79CBF22B9FFF74DFF25465C
:101C20002846F8BD00F026F8A0420FD221463846DB
:101C3000FFF78EFF05460028F2D031462246FFF717
:101C400017FF31463846FFF737FFE9E73546E7E744
:101C500038B50023054C054608462360FEF7BAFE5A
:101C6000431C02D1236803B12B6038BDA0000020C3
:101C70007047704751F8043C181F002BBCBF0B582D
:101C8000C0187047F8B500BFF8BC08BC9E46704746
:0C1C9000F8B500BFF8BC08BC9E467047C9
:101C9C0057656C636F6D6520746F2042656C616C69
:101CAC002043616C63756C61746F72004C6F61647E
:101CBC00696E672E2E2E2E2E000000004B6579705B
:101CCC006164206973207265616479005265737573
:101CDC006C74203D200000004552524F52203A00B7
:101CEC00446976696465204279203000256C750062
:101CFC0025642E2530336400232D302B2000686C96
:101D0C004C00656667454647003031323334353612
:101D1C00373839414243444546003031323334354B
:0C1D2C0036373839616263646566000078
:041D38005501000849
:041D3C003101000869
:101D40000100020008001000200040008000000197
:101D5000140000200000000000000000000000004F
:101D60000000000000000000000000000000000073
:101D70000000000000000000000000000000000063
:101D80000000000000000000000000000000000053
:101D90000000000000000000000000000000000043
:101DA0000000000000000000000000000000000033
:041DB000000000002F
:0400000508000A41A4
:00000001FF
