S00F0000447269766572732E7372656336
S11300000C942A000C949F010C94C6010C94ED01ED
S11300100C943C000C943C000C943C000C943C006C
S11300200C943C000C943C000C943C000C943C005C
S11300300C943C000C943C000C943C000C943C004C
S11300400C943C000C943C000C943C000C943C003C
S11300500C943C0011241FBECFE5D8E0DEBFCDBF19
S113006020E0A0E6B0E001C01D92A636B207E1F799
S11300700E9452020C949B020C9400001F93CF9395
S1130080DF9300D0CDB7DEB712E019831A83BE0127
S11300906F5F7F4F86E390E00E94140284E08983BF
S11300A01A83BE016F5F7F4F86E390E00E941402C3
S11300B088E089831A83BE016F5F7F4F86E390E0F7
S11300C00E94140280E189831A83BE016F5F7F4F0F
S11300D089E390E00E94140280E289831A83BE01BE
S11300E06F5F7F4F89E390E00E94140280E489836C
S11300F01A83BE016F5F7F4F89E390E00E94140270
S113010080E889831A83BE016F5F7F4F89E390E0A3
S11301100E94140240E068E086E390E00E944602F8
S113012040E062E086E390E00E94460240E064E042
S113013086E390E00E9446020F900F90DF91CF91EA
S11301401F91089540E068E086E390E00E94460233
S113015020E030E009C0019602C080E090E08F3FCB
S11301609105C8F32F5F3F4F22303105B0F341E0D2
S113017068E086E390E00E94460220E030E009C097
S1130180019602C080E090E08F3F9105C8F32F5F95
S11301903F4F22303105B0F30895CF93C82F8BB36E
S11301A08F709C2F907F892B8BBB40E062E086E3AD
S11301B090E00E94460240E064E086E390E00E9402
S11301C046020E94A2002BB330E1C39FC001112458
S11301D0922F9F70892B8BBB40E062E086E390E016
S11301E00E94460240E064E086E390E00E944602FA
S11301F00E94A200CF91089581E00E94CD0008954D
S113020020E030E009C0019602C080E090E08F3F1A
S11302109105C8F32F5F3F4F24313105B0F30E949D
S11302203E000E94FC0082E00E94CD0088E20E9411
S1130230CD0086E00E94CD0080E80E94CD008FE0D2
S11302400E94CD000895CF93C82F8BB38F709C2F3D
S1130250907F892B8BBB41E062E086E390E00E94B3
S1130260460240E064E086E390E00E9446020E9479
S1130270A2002BB330E1C39FC0011124922F9F70C1
S1130280892B8BBB41E062E086E390E00E9446024A
S113029040E064E086E390E00E9446020E94A200EF
S11302A0CF910895CF93DF93C82FD62F813031F4A7
S11302B0603120F480E8860F0E94CD00C23031F412
S11302C0D03120F480EC8D0F0E94CD00DF91CF91CE
S11302D00895CF92DF92EF92FF92CF93DF93EC01D8
S11302E0C12CD12C760121C09FEFC91AD90AE90A81
S11302F0F90A21960E94230180E1C816D104E10481
S1130300F10421F460E082E00E94520190E2C916F7
S1130310D104E104F10449F40E94FC0060E081E0AE
S11303200E945201C12CD12C760188818111DCCF2D
S1130330DF91CF91FF90EF90DF90CF9008951F92BF
S11303400F920FB60F9211242F933F934F935F9305
S11303506F937F938F939F93AF93BF93EF93FF9389
S1130360E0916000F09161000995FF91EF91BF91D8
S1130370AF919F918F917F916F915F914F913F9139
S11303802F910F900FBE0F901F9018951F920F92F0
S11303900FB60F9211242F933F934F935F936F9354
S11303A07F938F939F93AF93BF93EF93FF93E091CA
S11303B06200F09163000995FF91EF91BF91AF91B5
S11303C09F918F917F916F915F914F913F912F9169
S11303D00F900FBE0F901F9018951F920F920FB69B
S11303E00F9211242F933F934F935F936F937F93B7
S11303F08F939F93AF93BF93EF93FF93E091640028
S1130400F09165000995FF91EF91BF91AF919F9194
S11304108F917F916F915F914F913F912F910F90A9
S11304200FBE0F901F901895FC01DB0111968C9163
S1130430119781110BC091818C91809589238183BF
S113044092818C918095892382830895813051F41F
S113045091818C9180958923818392818C91892BC0
S11304608283089591818C91892B818311968C913B
S11304701197833029F492818C91892B828308957A
S113048092818C918095892382830895FC01413067
S113049021F48281682B6283089592816095692397
S11304A062830895CF93DF93CDB7DEB72A970FB653
S11304B0F894DEBF0FBECDBF0E9400010E946D0202
S11304C0CE0101960E94780260E082E00E9452010F
S11304D0CE0101960E946901F3CF83E389B986E8CE
S11304E080BD88E18AB908955F9BFECF8CB10895E1
S11304F00F931F93CF938C01C0E00E947402F80104
S113050080838033A1F090E00E942301CF3039F43E
S113051060E070E082E090E00E94520104C0CF31BC
S113052011F40E94FC000F5F1F4FCF5FE6CFCF9105
S10D05301F910F910895F894FFCF76
S9030000FC
